{
  "contractName": "MultiBetContract",
  "abi": [
    {
      "inputs": [],
      "stateMutability": "nonpayable",
      "type": "constructor"
    },
    {
      "anonymous": false,
      "inputs": [
        {
          "indexed": false,
          "internalType": "address",
          "name": "player1",
          "type": "address"
        },
        {
          "indexed": false,
          "internalType": "uint256",
          "name": "betId",
          "type": "uint256"
        }
      ],
      "name": "BetCreated",
      "type": "event"
    },
    {
      "anonymous": false,
      "inputs": [
        {
          "indexed": false,
          "internalType": "address",
          "name": "player1",
          "type": "address"
        },
        {
          "indexed": false,
          "internalType": "address",
          "name": "player2",
          "type": "address"
        }
      ],
      "name": "BetStartsEvent",
      "type": "event"
    },
    {
      "anonymous": false,
      "inputs": [
        {
          "indexed": false,
          "internalType": "address",
          "name": "winner",
          "type": "address"
        },
        {
          "indexed": false,
          "internalType": "uint256",
          "name": "gains",
          "type": "uint256"
        }
      ],
      "name": "EndOfBetEvent",
      "type": "event"
    },
    {
      "anonymous": false,
      "inputs": [
        {
          "indexed": false,
          "internalType": "uint256",
          "name": "player1Deposit",
          "type": "uint256"
        },
        {
          "indexed": false,
          "internalType": "uint256",
          "name": "player2Deposit",
          "type": "uint256"
        }
      ],
      "name": "EndOfRoundEvent",
      "type": "event"
    },
    {
      "inputs": [],
      "name": "betCount",
      "outputs": [
        {
          "internalType": "uint256",
          "name": "",
          "type": "uint256"
        }
      ],
      "stateMutability": "view",
      "type": "function",
      "constant": true
    },
    {
      "inputs": [
        {
          "internalType": "uint256",
          "name": "interestedBet",
          "type": "uint256"
        }
      ],
      "name": "getLatestPrice",
      "outputs": [
        {
          "internalType": "int256",
          "name": "",
          "type": "int256"
        }
      ],
      "stateMutability": "view",
      "type": "function",
      "constant": true
    },
    {
      "inputs": [
        {
          "internalType": "string",
          "name": "_priceFeedName",
          "type": "string"
        },
        {
          "internalType": "address",
          "name": "_priceFeed",
          "type": "address"
        },
        {
          "internalType": "int256",
          "name": "pricePrediction",
          "type": "int256"
        }
      ],
      "name": "createBet",
      "outputs": [],
      "stateMutability": "payable",
      "type": "function",
      "payable": true
    },
    {
      "inputs": [
        {
          "internalType": "uint256",
          "name": "interestedBet",
          "type": "uint256"
        },
        {
          "internalType": "int256",
          "name": "pricePrediction",
          "type": "int256"
        }
      ],
      "name": "joinBet",
      "outputs": [],
      "stateMutability": "payable",
      "type": "function",
      "payable": true
    },
    {
      "inputs": [
        {
          "internalType": "uint256",
          "name": "interestedBet",
          "type": "uint256"
        }
      ],
      "name": "withdraw",
      "outputs": [],
      "stateMutability": "nonpayable",
      "type": "function"
    },
    {
      "inputs": [
        {
          "internalType": "uint256",
          "name": "interestedBet",
          "type": "uint256"
        }
      ],
      "name": "getPlayer1Details",
      "outputs": [
        {
          "internalType": "address",
          "name": "p1",
          "type": "address"
        },
        {
          "internalType": "uint256",
          "name": "player1Deposit",
          "type": "uint256"
        },
        {
          "internalType": "int256",
          "name": "player1PricePrediction",
          "type": "int256"
        }
      ],
      "stateMutability": "view",
      "type": "function",
      "constant": true
    },
    {
      "inputs": [
        {
          "internalType": "uint256",
          "name": "interestedBet",
          "type": "uint256"
        }
      ],
      "name": "getPlayer2Details",
      "outputs": [
        {
          "internalType": "address",
          "name": "p2",
          "type": "address"
        },
        {
          "internalType": "uint256",
          "name": "player2Deposit",
          "type": "uint256"
        },
        {
          "internalType": "int256",
          "name": "player2PricePrediction",
          "type": "int256"
        }
      ],
      "stateMutability": "view",
      "type": "function",
      "constant": true
    },
    {
      "inputs": [
        {
          "internalType": "uint256",
          "name": "interestedBet",
          "type": "uint256"
        }
      ],
      "name": "getBetDetails",
      "outputs": [
        {
          "internalType": "bool",
          "name": "gameFinished",
          "type": "bool"
        },
        {
          "internalType": "bool",
          "name": "withdrawCompleted",
          "type": "bool"
        },
        {
          "internalType": "address",
          "name": "theWinner",
          "type": "address"
        },
        {
          "internalType": "uint256",
          "name": "gains",
          "type": "uint256"
        },
        {
          "internalType": "address",
          "name": "priceFeedAddress",
          "type": "address"
        },
        {
          "internalType": "string",
          "name": "priceFeedName",
          "type": "string"
        },
        {
          "internalType": "int256",
          "name": "currentPriceFromChainLink",
          "type": "int256"
        }
      ],
      "stateMutability": "view",
      "type": "function",
      "constant": true
    },
    {
      "inputs": [],
      "name": "getActiveBets",
      "outputs": [
        {
          "components": [
            {
              "internalType": "uint256",
              "name": "bettingPairId",
              "type": "uint256"
            },
            {
              "internalType": "contract AggregatorV3Interface",
              "name": "priceFeed",
              "type": "address"
            },
            {
              "internalType": "address",
              "name": "priceFeedAddress",
              "type": "address"
            },
            {
              "internalType": "string",
              "name": "priceFeedName",
              "type": "string"
            },
            {
              "internalType": "int256",
              "name": "currentPriceFromChainLink",
              "type": "int256"
            },
            {
              "internalType": "address",
              "name": "player1",
              "type": "address"
            },
            {
              "internalType": "address",
              "name": "player2",
              "type": "address"
            },
            {
              "internalType": "uint256",
              "name": "player1Deposit",
              "type": "uint256"
            },
            {
              "internalType": "uint256",
              "name": "player2Deposit",
              "type": "uint256"
            },
            {
              "internalType": "int256",
              "name": "player1PricePrediction",
              "type": "int256"
            },
            {
              "internalType": "int256",
              "name": "player2PricePrediction",
              "type": "int256"
            },
            {
              "internalType": "bool",
              "name": "gameFinished",
              "type": "bool"
            },
            {
              "internalType": "bool",
              "name": "withdrawCompleted",
              "type": "bool"
            },
            {
              "internalType": "address",
              "name": "theWinner",
              "type": "address"
            },
            {
              "internalType": "uint256",
              "name": "gains",
              "type": "uint256"
            }
          ],
          "internalType": "struct MultiBetContract.BettingEvent[]",
          "name": "",
          "type": "tuple[]"
        }
      ],
      "stateMutability": "view",
      "type": "function",
      "constant": true
    }
  ],
  "bytecode": "0x608060405234801561001057600080fd5b50336000806101000a81548173ffffffffffffffffffffffffffffffffffffffff021916908373ffffffffffffffffffffffffffffffffffffffff1602179055506000600181905550611ae8806100686000396000f3fe6080604052600436106100865760003560e01c8063a96ec6a211610059578063a96ec6a214610152578063ada7302014610191578063b94fe917146101bc578063cf094497146101f9578063f6b6d52c1461022457610086565b8063023858c91461008b5780632e1a7d4d146100ca5780633df2967e146100f357806365f0bc9014610136575b600080fd5b34801561009757600080fd5b506100b260048036038101906100ad919061137b565b610240565b6040516100c19392919061177d565b60405180910390f35b3480156100d657600080fd5b506100f160048036038101906100ec919061137b565b6102b7565b005b3480156100ff57600080fd5b5061011a6004803603810190610115919061137b565b61042f565b60405161012d97969594939291906117d6565b60405180910390f35b610150600480360381019061014b9190611314565b6105e7565b005b34801561015e57600080fd5b506101796004803603810190610174919061137b565b6107c4565b6040516101889392919061177d565b60405180910390f35b34801561019d57600080fd5b506101a661083b565b6040516101b391906117b4565b60405180910390f35b3480156101c857600080fd5b506101e360048036038101906101de919061137b565b610bc2565b6040516101f0919061184c565b60405180910390f35b34801561020557600080fd5b5061020e610c88565b60405161021b9190611867565b60405180910390f35b61023e600480360381019061023991906113a4565b610c8e565b005b60008060006002600085815260200190815260200160002060050160009054906101000a900473ffffffffffffffffffffffffffffffffffffffff16925060026000858152602001908152602001600020600701549150600260008581526020019081526020016000206009015490509193909250565b60026000828152602001908152602001600020600b0160009054906101000a900460ff168015610308575060026000828152602001908152602001600020600b0160019054906101000a900460ff16155b801561037557503373ffffffffffffffffffffffffffffffffffffffff1660026000838152602001908152602001600020600b0160029054906101000a900473ffffffffffffffffffffffffffffffffffffffff1673ffffffffffffffffffffffffffffffffffffffff16145b61037e57600080fd5b600060026000838152602001908152602001600020600c01549050600060026000848152602001908152602001600020600c0181905550600160026000848152602001908152602001600020600b0160016101000a81548160ff0219169083151502179055503373ffffffffffffffffffffffffffffffffffffffff166108fc829081150290604051600060405180830381858888f1935050505015801561042a573d6000803e3d6000fd5b505050565b60008060008060006060600060026000898152602001908152602001600020600b0160009054906101000a900460ff16965060026000898152602001908152602001600020600b0160019054906101000a900460ff16955060026000898152602001908152602001600020600b0160029054906101000a900473ffffffffffffffffffffffffffffffffffffffff16945060026000898152602001908152602001600020600c015493506002600089815260200190815260200160002060020160009054906101000a900473ffffffffffffffffffffffffffffffffffffffff169250600260008981526020019081526020016000206003018054600181600116156101000203166002900480601f0160208091040260200160405190810160405280929190818152602001828054600181600116156101000203166002900480156105bc5780601f10610591576101008083540402835291602001916105bc565b820191906000526020600020905b81548152906001019060200180831161059f57829003601f168201915b5050505050915060026000898152602001908152602001600020600401549050919395979092949650565b600160008154809291906001019190505550600154600260006001548152602001908152602001600020600001819055503360026000600154815260200190815260200160002060050160006101000a81548173ffffffffffffffffffffffffffffffffffffffff021916908373ffffffffffffffffffffffffffffffffffffffff160217905550346002600060015481526020019081526020016000206007018190555080600260006001548152602001908152602001600020600901819055508160026000600154815260200190815260200160002060020160006101000a81548173ffffffffffffffffffffffffffffffffffffffff021916908373ffffffffffffffffffffffffffffffffffffffff16021790555082600260006001548152602001908152602001600020600301908051906020019061072c9291906110b5565b508160026000600154815260200190815260200160002060010160006101000a81548173ffffffffffffffffffffffffffffffffffffffff021916908373ffffffffffffffffffffffffffffffffffffffff1602179055507f63fda5dd80dd8313b3a7cdf6f8c34d2484fd00c5183e38b1125afb26b12d9779336001546040516107b792919061172b565b60405180910390a1505050565b60008060006002600085815260200190815260200160002060060160009054906101000a900473ffffffffffffffffffffffffffffffffffffffff1692506002600085815260200190815260200160002060080154915060026000858152602001908152602001600020600a015490509193909250565b60608060015467ffffffffffffffff8111801561085757600080fd5b5060405190808252806020026020018201604052801561089157816020015b61087e611135565b8152602001906001900390816108765790505b5090506000809050600090505b600154811015610bba5760026000600183018152602001908152602001600020604051806101e0016040529081600082015481526020016001820160009054906101000a900473ffffffffffffffffffffffffffffffffffffffff1673ffffffffffffffffffffffffffffffffffffffff1673ffffffffffffffffffffffffffffffffffffffff1681526020016002820160009054906101000a900473ffffffffffffffffffffffffffffffffffffffff1673ffffffffffffffffffffffffffffffffffffffff1673ffffffffffffffffffffffffffffffffffffffff168152602001600382018054600181600116156101000203166002900480601f016020809104026020016040519081016040528092919081815260200182805460018160011615610100020316600290048015610a195780601f106109ee57610100808354040283529160200191610a19565b820191906000526020600020905b8154815290600101906020018083116109fc57829003601f168201915b50505050508152602001600482015481526020016005820160009054906101000a900473ffffffffffffffffffffffffffffffffffffffff1673ffffffffffffffffffffffffffffffffffffffff1673ffffffffffffffffffffffffffffffffffffffff1681526020016006820160009054906101000a900473ffffffffffffffffffffffffffffffffffffffff1673ffffffffffffffffffffffffffffffffffffffff1673ffffffffffffffffffffffffffffffffffffffff168152602001600782015481526020016008820154815260200160098201548152602001600a8201548152602001600b820160009054906101000a900460ff16151515158152602001600b820160019054906101000a900460ff16151515158152602001600b820160029054906101000a900473ffffffffffffffffffffffffffffffffffffffff1673ffffffffffffffffffffffffffffffffffffffff1673ffffffffffffffffffffffffffffffffffffffff168152602001600c82015481525050828281518110610ba257fe5b6020026020010181905250808060010191505061089e565b819250505090565b6000806002600084815260200190815260200160002060010160009054906101000a900473ffffffffffffffffffffffffffffffffffffffff1673ffffffffffffffffffffffffffffffffffffffff1663feaf968c6040518163ffffffff1660e01b815260040160a06040518083038186803b158015610c4157600080fd5b505afa158015610c55573d6000803e3d6000fd5b505050506040513d601f19601f82011682018060405250810190610c7991906113e0565b50505091505080915050919050565b60015481565b60026000838152602001908152602001600020600b0160009054906101000a900460ff16158015610d215750600073ffffffffffffffffffffffffffffffffffffffff166002600084815260200190815260200160002060060160009054906101000a900473ffffffffffffffffffffffffffffffffffffffff1673ffffffffffffffffffffffffffffffffffffffff16145b8015610d8f57506002600083815260200190815260200160002060050160009054906101000a900473ffffffffffffffffffffffffffffffffffffffff1673ffffffffffffffffffffffffffffffffffffffff163373ffffffffffffffffffffffffffffffffffffffff1614155b610d9857600080fd5b336002600084815260200190815260200160002060060160006101000a81548173ffffffffffffffffffffffffffffffffffffffff021916908373ffffffffffffffffffffffffffffffffffffffff1602179055503460026000848152602001908152602001600020600801819055508060026000848152602001908152602001600020600a0181905550610e2c82610bc2565b6002600084815260200190815260200160002060040181905550610e7d60026000848152602001908152602001600020600a0154600260008581526020019081526020016000206004015403610f43565b610eb46002600085815260200190815260200160002060090154600260008681526020019081526020016000206004015403610f43565b13610efe57610ef9826002600085815260200190815260200160002060050160009054906101000a900473ffffffffffffffffffffffffffffffffffffffff16610f5f565b610f3f565b610f3e826002600085815260200190815260200160002060060160009054906101000a900473ffffffffffffffffffffffffffffffffffffffff16610f5f565b5b5050565b600080821215610f565781600003610f58565b815b9050919050565b600160026000848152602001908152602001600020600b0160006101000a81548160ff0219169083151502179055508060026000848152602001908152602001600020600b0160026101000a81548173ffffffffffffffffffffffffffffffffffffffff021916908373ffffffffffffffffffffffffffffffffffffffff160217905550600260008381526020019081526020016000206008015460026000848152602001908152602001600020600701540160026000848152602001908152602001600020600c01819055507fb92c2b787ad77de767427bc06dcf1d73bff20efa895eb4f5b114faa162d48db860026000848152602001908152602001600020600b0160029054906101000a900473ffffffffffffffffffffffffffffffffffffffff1660026000858152602001908152602001600020600c01546040516110a9929190611754565b60405180910390a15050565b828054600181600116156101000203166002900490600052602060002090601f016020900481019282601f106110f657805160ff1916838001178555611124565b82800160010185558215611124579182015b82811115611123578251825591602001919060010190611108565b5b509050611131919061121d565b5090565b604051806101e0016040528060008152602001600073ffffffffffffffffffffffffffffffffffffffff168152602001600073ffffffffffffffffffffffffffffffffffffffff1681526020016060815260200160008152602001600073ffffffffffffffffffffffffffffffffffffffff168152602001600073ffffffffffffffffffffffffffffffffffffffff16815260200160008152602001600081526020016000815260200160008152602001600015158152602001600015158152602001600073ffffffffffffffffffffffffffffffffffffffff168152602001600081525090565b61123f91905b8082111561123b576000816000905550600101611223565b5090565b90565b60008135905061125181611a56565b92915050565b60008135905061126681611a6d565b92915050565b60008151905061127b81611a6d565b92915050565b600082601f83011261129257600080fd5b81356112a56112a0826118af565b611882565b915080825260208301602083018583830111156112c157600080fd5b6112cc838284611a03565b50505092915050565b6000813590506112e481611a84565b92915050565b6000815190506112f981611a84565b92915050565b60008151905061130e81611a9b565b92915050565b60008060006060848603121561132957600080fd5b600084013567ffffffffffffffff81111561134357600080fd5b61134f86828701611281565b935050602061136086828701611242565b925050604061137186828701611257565b9150509250925092565b60006020828403121561138d57600080fd5b600061139b848285016112d5565b91505092915050565b600080604083850312156113b757600080fd5b60006113c5858286016112d5565b92505060206113d685828601611257565b9150509250929050565b600080600080600060a086880312156113f857600080fd5b6000611406888289016112ff565b95505060206114178882890161126c565b9450506040611428888289016112ea565b9350506060611439888289016112ea565b925050608061144a888289016112ff565b9150509295509295909350565b600061146383836115ca565b905092915050565b611474816119a9565b82525050565b61148381611941565b82525050565b61149281611941565b82525050565b60006114a3826118eb565b6114ad818561190e565b9350836020820285016114bf856118db565b8060005b858110156114fb57848403895281516114dc8582611457565b94506114e783611901565b925060208a019950506001810190506114c3565b50829750879550505050505092915050565b61151681611953565b82525050565b61152581611953565b82525050565b611534816119bb565b82525050565b6115438161195f565b82525050565b6115528161195f565b82525050565b6000611563826118f6565b61156d818561191f565b935061157d818560208601611a12565b61158681611a45565b840191505092915050565b600061159c826118f6565b6115a68185611930565b93506115b6818560208601611a12565b6115bf81611a45565b840191505092915050565b60006101e0830160008301516115e3600086018261170d565b5060208301516115f6602086018261152b565b506040830151611609604086018261147a565b50606083015184820360608601526116218282611558565b9150506080830151611636608086018261153a565b5060a083015161164960a086018261147a565b5060c083015161165c60c086018261147a565b5060e083015161166f60e086018261170d565b5061010083015161168461010086018261170d565b5061012083015161169961012086018261153a565b506101408301516116ae61014086018261153a565b506101608301516116c361016086018261150d565b506101808301516116d861018086018261150d565b506101a08301516116ed6101a086018261147a565b506101c08301516117026101c086018261170d565b508091505092915050565b61171681611989565b82525050565b61172581611989565b82525050565b6000604082019050611740600083018561146b565b61174d602083018461171c565b9392505050565b60006040820190506117696000830185611489565b611776602083018461171c565b9392505050565b60006060820190506117926000830186611489565b61179f602083018561171c565b6117ac6040830184611549565b949350505050565b600060208201905081810360008301526117ce8184611498565b905092915050565b600060e0820190506117eb600083018a61151c565b6117f8602083018961151c565b6118056040830188611489565b611812606083018761171c565b61181f6080830186611489565b81810360a08301526118318185611591565b905061184060c0830184611549565b98975050505050505050565b60006020820190506118616000830184611549565b92915050565b600060208201905061187c600083018461171c565b92915050565b6000604051905081810181811067ffffffffffffffff821117156118a557600080fd5b8060405250919050565b600067ffffffffffffffff8211156118c657600080fd5b601f19601f8301169050602081019050919050565b6000819050602082019050919050565b600081519050919050565b600081519050919050565b6000602082019050919050565b600082825260208201905092915050565b600082825260208201905092915050565b600082825260208201905092915050565b600061194c82611969565b9050919050565b60008115159050919050565b6000819050919050565b600073ffffffffffffffffffffffffffffffffffffffff82169050919050565b6000819050919050565b600069ffffffffffffffffffff82169050919050565b60006119b4826119df565b9050919050565b60006119c6826119cd565b9050919050565b60006119d882611969565b9050919050565b60006119ea826119f1565b9050919050565b60006119fc82611969565b9050919050565b82818337600083830152505050565b60005b83811015611a30578082015181840152602081019050611a15565b83811115611a3f576000848401525b50505050565b6000601f19601f8301169050919050565b611a5f81611941565b8114611a6a57600080fd5b50565b611a768161195f565b8114611a8157600080fd5b50565b611a8d81611989565b8114611a9857600080fd5b50565b611aa481611993565b8114611aaf57600080fd5b5056fea2646970667358221220e7e351df4adec7f4dde928b9f3c3d99d1b9a195abdbc7a61ad41680cf844350964736f6c63430006060033",
  "immutableReferences": {},
  "source": "pragma solidity ^0.6.6;\npragma experimental ABIEncoderV2;\n\nimport \"@chainlink/contracts/src/v0.6/interfaces/AggregatorV3Interface.sol\";\n\ncontract MultiBetContract {\n    \n    address private _owner;\n    uint256 public betCount;\n    \n    struct BettingEvent{\n        \n        uint256 bettingPairId; /*Monotonically increasing Id within the smart contract.*/\n        \n        AggregatorV3Interface priceFeed;\n        address priceFeedAddress;\n        string priceFeedName;\n        int currentPriceFromChainLink;\n\n        /**\n        * Our Bettors\n        */\n        address player1;\n        address player2;\n\n        uint player1Deposit;\n        uint player2Deposit;\n\n        int player1PricePrediction;\n        int player2PricePrediction;\n\n        /*\n          Bet Status         \n        */\n        bool gameFinished;\n        bool withdrawCompleted;\n        address  theWinner;\n        uint gains;\n    }\n    \n    mapping(uint256 => BettingEvent) bettingEventMap; \n    \n    //BettingEvent[] bettingEventMap;\n    \n    /**\n    * The logs that will be emitted in every step of the contract's life cycle\n    */\n    event BetCreated(address player1, uint256 betId);\n\tevent BetStartsEvent(address player1, address player2);\n\tevent EndOfRoundEvent(uint player1Deposit, uint player2Deposit);\n\tevent EndOfBetEvent(address winner, uint gains);\n\n    constructor() public {\n        _owner = msg.sender;\n        betCount = 0;\n    }\n\n    /**\n     * Returns the latest price\n     */\n    function getLatestPrice(uint256 interestedBet) public view returns (int) {\n        (\n            /* uint80 roundID */,\n            int price,\n            /* uint startedAt */,\n            /* uint timeStamp */,\n            /* uint80 answeredInRound */\n        ) = bettingEventMap[interestedBet].priceFeed.latestRoundData();\n        return price;\n    }\n\n    function createBet(string memory _priceFeedName, address _priceFeed, int pricePrediction) public payable{\n        \n        betCount++;\n        \n        bettingEventMap[betCount].bettingPairId = betCount;\n        \n        bettingEventMap[betCount].player1 = msg.sender;\n        bettingEventMap[betCount].player1Deposit = msg.value;\n        bettingEventMap[betCount].player1PricePrediction = pricePrediction; \n\n        // Bet creator will decide which price the bet will be on\n        bettingEventMap[betCount].priceFeedAddress = _priceFeed;\n        bettingEventMap[betCount].priceFeedName = _priceFeedName;\n        bettingEventMap[betCount].priceFeed = AggregatorV3Interface(_priceFeed);\n        \n        emit BetCreated(msg.sender, betCount);\n    }\n\n    /**\n    * Every round a player can put a sum of ether, if one of the player put in twice or\n    * more the money (in total) than the other did, the first wins\n    */\n    function joinBet(uint256 interestedBet, int pricePrediction) public payable {\n    \trequire(!bettingEventMap[interestedBet].gameFinished &&\n    \t        bettingEventMap[interestedBet].player2 == address(0) && \n    \t        msg.sender != bettingEventMap[interestedBet].player1);\n        \n        bettingEventMap[interestedBet].player2 = msg.sender;        \n        bettingEventMap[interestedBet].player2Deposit = msg.value;\n        bettingEventMap[interestedBet].player2PricePrediction = pricePrediction; \n\n    \tbettingEventMap[interestedBet].currentPriceFromChainLink = getLatestPrice(interestedBet);\n\n        //Check who is closest to the price and declare them the winner.            \n    \tif(abs(bettingEventMap[interestedBet].currentPriceFromChainLink - bettingEventMap[interestedBet].player1PricePrediction) <=\n           abs(bettingEventMap[interestedBet].currentPriceFromChainLink - bettingEventMap[interestedBet].player2PricePrediction)) {\n    \t\tendOfGame(interestedBet, bettingEventMap[interestedBet].player1);\n    \t} else {\n    \t\tendOfGame(interestedBet, bettingEventMap[interestedBet].player2);\n    \t}\n    }\n\n    function abs(int x) private pure returns (int) {\n        return x >= 0 ? x : -x;\n    }\n\n    function endOfGame(uint256 interestedBet, address winner) internal {\n        bettingEventMap[interestedBet].gameFinished = true;\n        bettingEventMap[interestedBet].theWinner = winner;\n        bettingEventMap[interestedBet].gains = bettingEventMap[interestedBet].player1Deposit + bettingEventMap[interestedBet].player2Deposit;\n        emit EndOfBetEvent(bettingEventMap[interestedBet].theWinner, bettingEventMap[interestedBet].gains);\n    }\n    \n    \n    /**\n    * The withdraw function, following the withdraw pattern shown and explained here:\n    * http://solidity.readthedocs.io/en/develop/common-patterns.html#withdrawal-from-contracts\n    */\n    function withdraw(uint256 interestedBet) public {\n        require(bettingEventMap[interestedBet].gameFinished && \n                !bettingEventMap[interestedBet].withdrawCompleted && \n                bettingEventMap[interestedBet].theWinner == msg.sender);\n\n        uint amount = bettingEventMap[interestedBet].gains;\n\n        // Clean out the current state\n        bettingEventMap[interestedBet].gains = 0;\n        bettingEventMap[interestedBet].withdrawCompleted = true;\n         \n        msg.sender.transfer(amount);\n    }\n    \n    function getPlayer1Details(uint256 interestedBet) public view returns (address p1, uint player1Deposit, int player1PricePrediction) {\n        p1 = bettingEventMap[interestedBet].player1;\n        player1Deposit = bettingEventMap[interestedBet].player1Deposit;\n        player1PricePrediction = bettingEventMap[interestedBet].player1PricePrediction;\n    }\n    \n    function getPlayer2Details(uint256 interestedBet) public view returns (address p2, uint player2Deposit, int player2PricePrediction) {\n        p2 = bettingEventMap[interestedBet].player2;\n        player2Deposit = bettingEventMap[interestedBet].player2Deposit;\n        player2PricePrediction = bettingEventMap[interestedBet].player2PricePrediction;\n    }\n    \n    function getBetDetails(uint256 interestedBet) public view returns (bool gameFinished, \n                                                                   bool withdrawCompleted, \n                                                                   address  theWinner, \n                                                                   uint gains,\n                                                                   address priceFeedAddress,\n                                                                   string memory priceFeedName,\n                                                                   int currentPriceFromChainLink) {\n        gameFinished = bettingEventMap[interestedBet].gameFinished;\n        withdrawCompleted = bettingEventMap[interestedBet].withdrawCompleted;\n        theWinner = bettingEventMap[interestedBet].theWinner;\n        gains = bettingEventMap[interestedBet].gains;\n        \n        priceFeedAddress = bettingEventMap[interestedBet].priceFeedAddress;\n        priceFeedName = bettingEventMap[interestedBet].priceFeedName;\n        currentPriceFromChainLink = bettingEventMap[interestedBet].currentPriceFromChainLink;\n    }\n    \n    function getActiveBets() public view returns (BettingEvent[] memory) {\n        BettingEvent[] memory activeBets = new BettingEvent[](betCount);\n        uint256 i = 0;\n        for (i = 0 ; i < betCount ; i++) {\n            activeBets[i] = bettingEventMap[i + 1];\n        }\n        return activeBets;\n    }\n}",
  "sourcePath": "/Volumes/Transcend/chain/chainlink_tutorial/bet-v2/contracts/MultiBetContract.sol",
  "compiler": {
    "name": "solc",
    "version": "0.6.6+commit.6c089d02.Emscripten.clang"
  },
  "schemaVersion": "3.4.1",
  "updatedAt": "2021-06-07T00:59:31.774Z",
  "networkType": "ethereum",
  "devdoc": {
    "methods": {}
  },
  "userdoc": {
    "methods": {
      "getLatestPrice(uint256)": {
        "notice": "Returns the latest price"
      },
      "joinBet(uint256,int256)": {
        "notice": "Every round a player can put a sum of ether, if one of the player put in twice or more the money (in total) than the other did, the first wins"
      },
      "withdraw(uint256)": {
        "notice": "The withdraw function, following the withdraw pattern shown and explained here: http://solidity.readthedocs.io/en/develop/common-patterns.html#withdrawal-from-contracts"
      }
    }
  }
}