{
  "contractName": "BetContractV3",
  "abi": [
    {
      "inputs": [
        {
          "internalType": "string",
          "name": "ownerName",
          "type": "string"
        }
      ],
      "stateMutability": "nonpayable",
      "type": "constructor"
    },
    {
      "inputs": [],
      "name": "GetBettingOwner",
      "outputs": [
        {
          "internalType": "string",
          "name": "",
          "type": "string"
        }
      ],
      "stateMutability": "view",
      "type": "function",
      "constant": true
    },
    {
      "inputs": [
        {
          "components": [
            {
              "internalType": "bool",
              "name": "isValid",
              "type": "bool"
            },
            {
              "internalType": "uint256",
              "name": "bettingEventId",
              "type": "uint256"
            },
            {
              "internalType": "string",
              "name": "bettingEventDescription",
              "type": "string"
            },
            {
              "internalType": "string[]",
              "name": "bettingEventScenarios",
              "type": "string[]"
            },
            {
              "internalType": "uint256",
              "name": "maxBettingValue",
              "type": "uint256"
            },
            {
              "internalType": "uint256",
              "name": "bettingEventValidity",
              "type": "uint256"
            }
          ],
          "internalType": "struct BetContractV3.BettingEvent[]",
          "name": "bettingEvents",
          "type": "tuple[]"
        }
      ],
      "name": "InitializeBettingEvents",
      "outputs": [],
      "stateMutability": "nonpayable",
      "type": "function"
    },
    {
      "inputs": [],
      "name": "GetAllBettingEvents",
      "outputs": [
        {
          "components": [
            {
              "internalType": "bool",
              "name": "isValid",
              "type": "bool"
            },
            {
              "internalType": "uint256",
              "name": "bettingEventId",
              "type": "uint256"
            },
            {
              "internalType": "string",
              "name": "bettingEventDescription",
              "type": "string"
            },
            {
              "internalType": "string[]",
              "name": "bettingEventScenarios",
              "type": "string[]"
            },
            {
              "internalType": "uint256",
              "name": "maxBettingValue",
              "type": "uint256"
            },
            {
              "internalType": "uint256",
              "name": "bettingEventValidity",
              "type": "uint256"
            }
          ],
          "internalType": "struct BetContractV3.BettingEvent[]",
          "name": "",
          "type": "tuple[]"
        }
      ],
      "stateMutability": "view",
      "type": "function",
      "constant": true
    },
    {
      "inputs": [
        {
          "internalType": "uint256",
          "name": "bettingEventId",
          "type": "uint256"
        },
        {
          "internalType": "int256",
          "name": "bettingEventScenario",
          "type": "int256"
        },
        {
          "internalType": "uint256",
          "name": "bettingAmount",
          "type": "uint256"
        }
      ],
      "name": "MakeBet",
      "outputs": [
        {
          "internalType": "uint256",
          "name": "",
          "type": "uint256"
        }
      ],
      "stateMutability": "payable",
      "type": "function",
      "payable": true
    },
    {
      "inputs": [
        {
          "internalType": "int256",
          "name": "bettingEventScenario",
          "type": "int256"
        },
        {
          "internalType": "uint256",
          "name": "bettingAmount",
          "type": "uint256"
        },
        {
          "internalType": "address",
          "name": "instantBetResultAggrAddress",
          "type": "address"
        }
      ],
      "name": "MakeInstantBet",
      "outputs": [
        {
          "internalType": "uint256",
          "name": "",
          "type": "uint256"
        }
      ],
      "stateMutability": "payable",
      "type": "function",
      "payable": true
    },
    {
      "inputs": [
        {
          "internalType": "uint256",
          "name": "bettingPairId",
          "type": "uint256"
        },
        {
          "internalType": "uint256",
          "name": "bettingEventId",
          "type": "uint256"
        },
        {
          "internalType": "int256",
          "name": "bettingEventScenario",
          "type": "int256"
        },
        {
          "internalType": "uint256",
          "name": "bettingAmount",
          "type": "uint256"
        }
      ],
      "name": "MakeCounterBet",
      "outputs": [],
      "stateMutability": "payable",
      "type": "function",
      "payable": true
    },
    {
      "inputs": [
        {
          "internalType": "uint256",
          "name": "bettingPairId",
          "type": "uint256"
        },
        {
          "internalType": "int256",
          "name": "bettingEventScenario",
          "type": "int256"
        },
        {
          "internalType": "uint256",
          "name": "bettingAmount",
          "type": "uint256"
        },
        {
          "internalType": "address",
          "name": "instantBetResultAggrAddress",
          "type": "address"
        }
      ],
      "name": "MakeInstantCounterBet",
      "outputs": [],
      "stateMutability": "payable",
      "type": "function",
      "payable": true
    },
    {
      "inputs": [],
      "name": "GetAllBets",
      "outputs": [
        {
          "components": [
            {
              "internalType": "bool",
              "name": "isInstantBet",
              "type": "bool"
            },
            {
              "internalType": "uint256",
              "name": "bettingEventId",
              "type": "uint256"
            },
            {
              "internalType": "uint256",
              "name": "bettingPairId",
              "type": "uint256"
            },
            {
              "internalType": "uint256",
              "name": "bettingAmount",
              "type": "uint256"
            },
            {
              "internalType": "address payable[2]",
              "name": "bettingPlayers",
              "type": "address[2]"
            },
            {
              "internalType": "int256[2]",
              "name": "bettingPlayersChoices",
              "type": "int256[2]"
            },
            {
              "internalType": "address",
              "name": "externalOracleAddress",
              "type": "address"
            }
          ],
          "internalType": "struct BetContractV3.BettingPair[]",
          "name": "",
          "type": "tuple[]"
        }
      ],
      "stateMutability": "view",
      "type": "function",
      "constant": true
    },
    {
      "inputs": [],
      "name": "GetAllInstantBets",
      "outputs": [
        {
          "components": [
            {
              "internalType": "bool",
              "name": "isInstantBet",
              "type": "bool"
            },
            {
              "internalType": "uint256",
              "name": "bettingEventId",
              "type": "uint256"
            },
            {
              "internalType": "uint256",
              "name": "bettingPairId",
              "type": "uint256"
            },
            {
              "internalType": "uint256",
              "name": "bettingAmount",
              "type": "uint256"
            },
            {
              "internalType": "address payable[2]",
              "name": "bettingPlayers",
              "type": "address[2]"
            },
            {
              "internalType": "int256[2]",
              "name": "bettingPlayersChoices",
              "type": "int256[2]"
            },
            {
              "internalType": "address",
              "name": "externalOracleAddress",
              "type": "address"
            }
          ],
          "internalType": "struct BetContractV3.BettingPair[]",
          "name": "",
          "type": "tuple[]"
        }
      ],
      "stateMutability": "view",
      "type": "function",
      "constant": true
    },
    {
      "inputs": [
        {
          "internalType": "uint256",
          "name": "bettingEventId",
          "type": "uint256"
        },
        {
          "internalType": "int256",
          "name": "winBettingEventScenario",
          "type": "int256"
        }
      ],
      "name": "EndBettingEvent",
      "outputs": [],
      "stateMutability": "nonpayable",
      "type": "function"
    }
  ],
  "bytecode": "0x60806040523480156200001157600080fd5b5060405162003a6038038062003a60833981810160405281019062000037919062000202565b6000815114156200007f576040517f08c379a0000000000000000000000000000000000000000000000000000000008152600401620000769062000289565b60405180910390fd5b336000806101000a81548173ffffffffffffffffffffffffffffffffffffffff021916908373ffffffffffffffffffffffffffffffffffffffff1602179055508060019080519060200190620000d7929190620000f7565b50600060028190555060006006819055506000600781905550506200034d565b828054600181600116156101000203166002900490600052602060002090601f016020900481019282601f106200013a57805160ff19168380011785556200016b565b828001600101855582156200016b579182015b828111156200016a5782518255916020019190600101906200014d565b5b5090506200017a91906200017e565b5090565b620001a391905b808211156200019f57600081600090555060010162000185565b5090565b90565b600082601f830112620001b857600080fd5b8151620001cf620001c982620002d9565b620002ab565b91508082526020830160208301858383011115620001ec57600080fd5b620001f983828462000317565b50505092915050565b6000602082840312156200021557600080fd5b600082015167ffffffffffffffff8111156200023057600080fd5b6200023e84828501620001a6565b91505092915050565b600062000256601c8362000306565b91507f50726f7669646564206f776e6572206e616d6520697320656d707479000000006000830152602082019050919050565b60006020820190508181036000830152620002a48162000247565b9050919050565b6000604051905081810181811067ffffffffffffffff82111715620002cf57600080fd5b8060405250919050565b600067ffffffffffffffff821115620002f157600080fd5b601f19601f8301169050602081019050919050565b600082825260208201905092915050565b60005b83811015620003375780820151818401526020810190506200031a565b8381111562000347576000848401525b50505050565b613703806200035d6000396000f3fe6080604052600436106100915760003560e01c8063a2224a6e11610059578063a2224a6e14610152578063e71a5e911461017d578063f33d16c2146101a6578063fab7bdc0146101d6578063fb484a671461020157610091565b806318c0102f1461009657806327a4f833146100b257806344d29557146100dd5780635d1742ec1461010d5780636768a9e214610136575b600080fd5b6100b060048036038101906100ab9190612851565b61022c565b005b3480156100be57600080fd5b506100c761083d565b6040516100d491906131d1565b60405180910390f35b6100f760048036038101906100f29190612777565b610ab8565b6040516101049190613397565b60405180910390f35b34801561011957600080fd5b50610134600480360381019061012f9190612736565b610c13565b005b610150600480360381019061014b91906128b4565b610db0565b005b34801561015e57600080fd5b50610167611148565b60405161017491906131f3565b60405180910390f35b34801561018957600080fd5b506101a4600480360381019061019f91906127c6565b611388565b005b6101c060048036038101906101bb9190612802565b611b87565b6040516101cd9190613397565b60405180910390f35b3480156101e257600080fd5b506101eb611d87565b6040516101f89190613215565b60405180910390f35b34801561020d57600080fd5b50610216611e29565b60405161022391906131f3565b60405180910390f35b81341461026e576040517f08c379a000000000000000000000000000000000000000000000000000000000815260040161026590613317565b60405180910390fd5b60006005600086815260200190815260200160002060030154116102c7576040517f08c379a00000000000000000000000000000000000000000000000000000000081526004016102be906132b7565b60405180910390fd5b8160056000868152602001908152602001600020600301541461031f576040517f08c379a000000000000000000000000000000000000000000000000000000000815260040161031690613277565b60405180910390fd5b8073ffffffffffffffffffffffffffffffffffffffff166005600086815260200190815260200160002060080160009054906101000a900473ffffffffffffffffffffffffffffffffffffffff1673ffffffffffffffffffffffffffffffffffffffff16146103c3576040517f08c379a00000000000000000000000000000000000000000000000000000000081526004016103ba90613257565b60405180910390fd5b60001515600460003373ffffffffffffffffffffffffffffffffffffffff1673ffffffffffffffffffffffffffffffffffffffff16815260200190815260200160002060009054906101000a900460ff16151514610456576040517f08c379a000000000000000000000000000000000000000000000000000000000815260040161044d90613237565b60405180910390fd5b600081905060008173ffffffffffffffffffffffffffffffffffffffff1663feaf968c6040518163ffffffff1660e01b815260040160a06040518083038186803b1580156104a357600080fd5b505afa1580156104b7573d6000803e3d6000fd5b505050506040513d601f19601f820116820180604052508101906104db9190612917565b50505091505060006105106005600089815260200190815260200160002060060160006002811061050857fe5b01548361202f565b9050600061051e878461202f565b9050808212156105ba576005600089815260200190815260200160002060040160006002811061054a57fe5b0160009054906101000a900473ffffffffffffffffffffffffffffffffffffffff1673ffffffffffffffffffffffffffffffffffffffff166108fc876002029081150290604051600060405180830381858888f193505050501580156105b4573d6000803e3d6000fd5b506106fe565b81811215610611573373ffffffffffffffffffffffffffffffffffffffff166108fc876002029081150290604051600060405180830381858888f1935050505015801561060b573d6000803e3d6000fd5b506106fd565b80821480156106205750600081145b156106fb576005600089815260200190815260200160002060040160006002811061064757fe5b0160009054906101000a900473ffffffffffffffffffffffffffffffffffffffff1673ffffffffffffffffffffffffffffffffffffffff166108fc879081150290604051600060405180830381858888f193505050501580156106ae573d6000803e3d6000fd5b503373ffffffffffffffffffffffffffffffffffffffff166108fc879081150290604051600060405180830381858888f193505050501580156106f5573d6000803e3d6000fd5b506106fc565b5b5b5b6001600760008282540392505081905550600060046000600560008c815260200190815260200160002060040160006002811061073757fe5b0160009054906101000a900473ffffffffffffffffffffffffffffffffffffffff1673ffffffffffffffffffffffffffffffffffffffff1673ffffffffffffffffffffffffffffffffffffffff16815260200190815260200160002060006101000a81548160ff02191690831515021790555060056000898152602001908152602001600020600080820160006101000a81549060ff02191690556001820160009055600282016000905560038201600090556004820160006107fa91906121e7565b60068201600061080a91906121f5565b6008820160006101000a81549073ffffffffffffffffffffffffffffffffffffffff021916905550505050505050505050565b60608060025467ffffffffffffffff8111801561085957600080fd5b5060405190808252806020026020018201604052801561089357816020015b610880612203565b8152602001906001900390816108785790505b5090506000809050600190505b6002548111610ab057600360008281526020019081526020016000206040518060c00160405290816000820160009054906101000a900460ff1615151515815260200160018201548152602001600282018054600181600116156101000203166002900480601f0160208091040260200160405190810160405280929190818152602001828054600181600116156101000203166002900480156109855780601f1061095a57610100808354040283529160200191610985565b820191906000526020600020905b81548152906001019060200180831161096857829003601f168201915b5050505050815260200160038201805480602002602001604051908101604052809291908181526020016000905b82821015610a6f578382906000526020600020018054600181600116156101000203166002900480601f016020809104026020016040519081016040528092919081815260200182805460018160011615610100020316600290048015610a5b5780601f10610a3057610100808354040283529160200191610a5b565b820191906000526020600020905b815481529060010190602001808311610a3e57829003601f168201915b5050505050815260200190600101906109b3565b50505050815260200160048201548152602001600582015481525050826001830381518110610a9a57fe5b60200260200101819052506001810190506108a0565b819250505090565b6000823414610afc576040517f08c379a0000000000000000000000000000000000000000000000000000000008152600401610af390613317565b60405180910390fd5b60001515600460003373ffffffffffffffffffffffffffffffffffffffff1673ffffffffffffffffffffffffffffffffffffffff16815260200190815260200160002060009054906101000a900460ff16151514610b8f576040517f08c379a0000000000000000000000000000000000000000000000000000000008152600401610b8690613237565b60405180910390fd5b6000610ba033600160008789612057565b9050826005600083815260200190815260200160002060080160006101000a81548173ffffffffffffffffffffffffffffffffffffffff021916908373ffffffffffffffffffffffffffffffffffffffff1602179055506001600760008282540192505081905550809150509392505050565b6000809054906101000a900473ffffffffffffffffffffffffffffffffffffffff1673ffffffffffffffffffffffffffffffffffffffff163373ffffffffffffffffffffffffffffffffffffffff1614610ca2576040517f08c379a0000000000000000000000000000000000000000000000000000000008152600401610c99906132d7565b60405180910390fd5b6000600281905550600060068190555060006007819055506000809050600090505b8151811015610dac576001600260008282540192505081905550818181518110610cea57fe5b602002602001015160036000600254815260200190815260200160002060008201518160000160006101000a81548160ff021916908315150217905550602082015181600101556040820151816002019080519060200190610d4d92919061223b565b506060820151816003019080519060200190610d6a9291906122bb565b506080820151816004015560a0820151816005015590505060025460036000600254815260200190815260200160002060010181905550600181019050610cc4565b5050565b803414610df2576040517f08c379a0000000000000000000000000000000000000000000000000000000008152600401610de990613317565b60405180910390fd5b6000600560008681526020019081526020016000206003015411610e4b576040517f08c379a0000000000000000000000000000000000000000000000000000000008152600401610e42906132b7565b60405180910390fd5b80600560008681526020019081526020016000206003015414610ea3576040517f08c379a0000000000000000000000000000000000000000000000000000000008152600401610e9a90613277565b60405180910390fd5b82600560008681526020019081526020016000206001015414610efb576040517f08c379a0000000000000000000000000000000000000000000000000000000008152600401610ef2906132f7565b60405180910390fd5b816003600085815260200190815260200160002060030180549050138015610f24575060008212155b610f63576040517f08c379a0000000000000000000000000000000000000000000000000000000008152600401610f5a90613377565b60405180910390fd5b60001515600460003373ffffffffffffffffffffffffffffffffffffffff1673ffffffffffffffffffffffffffffffffffffffff16815260200190815260200160002060009054906101000a900460ff16151514610ff6576040517f08c379a0000000000000000000000000000000000000000000000000000000008152600401610fed90613237565b60405180910390fd5b816005600086815260200190815260200160002060060160006002811061101957fe5b0154141561105c576040517f08c379a000000000000000000000000000000000000000000000000000000000815260040161105390613357565b60405180910390fd5b6001600460003373ffffffffffffffffffffffffffffffffffffffff1673ffffffffffffffffffffffffffffffffffffffff16815260200190815260200160002060006101000a81548160ff021916908315150217905550336005600060065481526020019081526020016000206004016001600281106110d957fe5b0160006101000a81548173ffffffffffffffffffffffffffffffffffffffff021916908373ffffffffffffffffffffffffffffffffffffffff1602179055508160056000600654815260200190815260200160002060060160016002811061113d57fe5b018190555050505050565b60608060075467ffffffffffffffff8111801561116457600080fd5b5060405190808252806020026020018201604052801561119e57816020015b61118b61231b565b8152602001906001900390816111835790505b50905060008090506000809050600191505b600654821161137f57600115156005600084815260200190815260200160002060000160009054906101000a900460ff161515141561137457600560008381526020019081526020016000206040518060e00160405290816000820160009054906101000a900460ff16151515158152602001600182015481526020016002820154815260200160038201548152602001600482016002806020026040519081016040528092919082600280156112b2576020028201915b8160009054906101000a900473ffffffffffffffffffffffffffffffffffffffff1673ffffffffffffffffffffffffffffffffffffffff1681526020019060010190808311611268575b50505050508152602001600682016002806020026040519081016040528092919082600280156112f7576020028201915b8154815260200190600101908083116112e3575b505050505081526020016008820160009054906101000a900473ffffffffffffffffffffffffffffffffffffffff1673ffffffffffffffffffffffffffffffffffffffff1673ffffffffffffffffffffffffffffffffffffffff168152505083828151811061136257fe5b60200260200101819052506001810190505b6001820191506111b0565b82935050505090565b6000809054906101000a900473ffffffffffffffffffffffffffffffffffffffff1673ffffffffffffffffffffffffffffffffffffffff163373ffffffffffffffffffffffffffffffffffffffff1614611417576040517f08c379a000000000000000000000000000000000000000000000000000000000815260040161140e90613337565b60405180910390fd5b600115156003600084815260200190815260200160002060000160009054906101000a900460ff16151514611481576040517f08c379a0000000000000000000000000000000000000000000000000000000008152600401611478906132f7565b60405180910390fd5b8060036000848152602001908152602001600020600301805490501380156114aa575060008112155b6114e9576040517f08c379a00000000000000000000000000000000000000000000000000000000081526004016114e090613377565b60405180910390fd5b6000600860008481526020019081526020016000208054905011611542576040517f08c379a000000000000000000000000000000000000000000000000000000000815260040161153990613297565b60405180910390fd5b6000809050600090505b60086000848152602001908152602001600020805490508163ffffffff161015611b015761157861231b565b60056000600860008781526020019081526020016000208463ffffffff16815481106115a057fe5b906000526020600020015481526020019081526020016000206040518060e00160405290816000820160009054906101000a900460ff161515151581526020016001820154815260200160028201548152602001600382015481526020016004820160028060200260405190810160405280929190826002801561166f576020028201915b8160009054906101000a900473ffffffffffffffffffffffffffffffffffffffff1673ffffffffffffffffffffffffffffffffffffffff1681526020019060010190808311611625575b50505050508152602001600682016002806020026040519081016040528092919082600280156116b4576020028201915b8154815260200190600101908083116116a0575b505050505081526020016008820160009054906101000a900473ffffffffffffffffffffffffffffffffffffffff1673ffffffffffffffffffffffffffffffffffffffff1673ffffffffffffffffffffffffffffffffffffffff16815250509050828160a0015160006002811061172757fe5b6020020151141561186e576001151560046000836080015160016002811061174b57fe5b602002015173ffffffffffffffffffffffffffffffffffffffff1673ffffffffffffffffffffffffffffffffffffffff16815260200190815260200160002060009054906101000a900460ff16151514156118085780608001516000600281106117b157fe5b602002015173ffffffffffffffffffffffffffffffffffffffff166108fc82606001516002029081150290604051600060405180830381858888f19350505050158015611802573d6000803e3d6000fd5b50611869565b806080015160006002811061181957fe5b602002015173ffffffffffffffffffffffffffffffffffffffff166108fc82606001519081150290604051600060405180830381858888f19350505050158015611867573d6000803e3d6000fd5b505b611964565b828160a0015160016002811061188057fe5b6020020151141561196257600115156004600083608001516001600281106118a457fe5b602002015173ffffffffffffffffffffffffffffffffffffffff1673ffffffffffffffffffffffffffffffffffffffff16815260200190815260200160002060009054906101000a900460ff161515141561195d57806080015160016002811061190a57fe5b602002015173ffffffffffffffffffffffffffffffffffffffff166108fc82606001516002029081150290604051600060405180830381858888f1935050505015801561195b573d6000803e3d6000fd5b505b611963565b5b5b600060046000836080015160006002811061197b57fe5b602002015173ffffffffffffffffffffffffffffffffffffffff1673ffffffffffffffffffffffffffffffffffffffff16815260200190815260200160002060006101000a81548160ff02191690831515021790555060006004600083608001516001600281106119e857fe5b602002015173ffffffffffffffffffffffffffffffffffffffff1673ffffffffffffffffffffffffffffffffffffffff16815260200190815260200160002060006101000a81548160ff02191690831515021790555060056000600860008781526020019081526020016000208463ffffffff1681548110611a6657fe5b90600052602060002001548152602001908152602001600020600080820160006101000a81549060ff0219169055600182016000905560028201600090556003820160009055600482016000611abc91906121e7565b600682016000611acc91906121f5565b6008820160006101000a81549073ffffffffffffffffffffffffffffffffffffffff021916905550505060018101905061154c565b600860008481526020019081526020016000206000611b20919061237c565b60036000848152602001908152602001600020600080820160006101000a81549060ff02191690556001820160009055600282016000611b60919061239d565b600382016000611b7091906123e5565b600482016000905560058201600090555050505050565b6000813414611bcb576040517f08c379a0000000000000000000000000000000000000000000000000000000008152600401611bc290613317565b60405180910390fd5b600115156003600086815260200190815260200160002060000160009054906101000a900460ff16151514611c35576040517f08c379a0000000000000000000000000000000000000000000000000000000008152600401611c2c906132f7565b60405180910390fd5b826003600086815260200190815260200160002060030180549050138015611c5e575060008312155b611c9d576040517f08c379a0000000000000000000000000000000000000000000000000000000008152600401611c9490613377565b60405180910390fd5b60001515600460003373ffffffffffffffffffffffffffffffffffffffff1673ffffffffffffffffffffffffffffffffffffffff16815260200190815260200160002060009054906101000a900460ff16151514611d30576040517f08c379a0000000000000000000000000000000000000000000000000000000008152600401611d2790613237565b60405180910390fd5b6000611d40336000878688612057565b905060086000868152602001908152602001600020819080600181540180825580915050600190039060005260206000200160009091909190915055809150509392505050565b606060018054600181600116156101000203166002900480601f016020809104026020016040519081016040528092919081815260200182805460018160011615610100020316600290048015611e1f5780601f10611df457610100808354040283529160200191611e1f565b820191906000526020600020905b815481529060010190602001808311611e0257829003601f168201915b5050505050905090565b60608060065467ffffffffffffffff81118015611e4557600080fd5b50604051908082528060200260200182016040528015611e7f57816020015b611e6c61231b565b815260200190600190039081611e645790505b5090506000809050600190505b600654811161202757600560008281526020019081526020016000206040518060e00160405290816000820160009054906101000a900460ff1615151515815260200160018201548152602001600282015481526020016003820154815260200160048201600280602002604051908101604052809291908260028015611f5e576020028201915b8160009054906101000a900473ffffffffffffffffffffffffffffffffffffffff1673ffffffffffffffffffffffffffffffffffffffff1681526020019060010190808311611f14575b5050505050815260200160068201600280602002604051908101604052809291908260028015611fa3576020028201915b815481526020019060010190808311611f8f575b505050505081526020016008820160009054906101000a900473ffffffffffffffffffffffffffffffffffffffff1673ffffffffffffffffffffffffffffffffffffffff1673ffffffffffffffffffffffffffffffffffffffff168152505082600183038151811061201157fe5b6020026020010181905250600181019050611e8c565b819250505090565b6000806000905082841261204757828403905061204d565b83830390505b8091505092915050565b60006001600460008873ffffffffffffffffffffffffffffffffffffffff1673ffffffffffffffffffffffffffffffffffffffff16815260200190815260200160002060006101000a81548160ff02191690831515021790555060016006600082825401925050819055508460056000600654815260200190815260200160002060000160006101000a81548160ff02191690831515021790555060065460056000600654815260200190815260200160002060020181905550836005600060065481526020019081526020016000206001018190555082600560006006548152602001908152602001600020600301819055508560056000600654815260200190815260200160002060040160006002811061217057fe5b0160006101000a81548173ffffffffffffffffffffffffffffffffffffffff021916908373ffffffffffffffffffffffffffffffffffffffff160217905550816005600060065481526020019081526020016000206006016000600281106121d457fe5b0181905550600654905095945050505050565b506000815560010160009055565b506000815560010160009055565b6040518060c0016040528060001515815260200160008152602001606081526020016060815260200160008152602001600081525090565b828054600181600116156101000203166002900490600052602060002090601f016020900481019282601f1061227c57805160ff19168380011785556122aa565b828001600101855582156122aa579182015b828111156122a957825182559160200191906001019061228e565b5b5090506122b79190612406565b5090565b82805482825590600052602060002090810192821561230a579160200282015b828111156123095782518290805190602001906122f992919061223b565b50916020019190600101906122db565b5b509050612317919061242b565b5090565b6040518060e0016040528060001515815260200160008152602001600081526020016000815260200161234c612457565b8152602001612359612479565b8152602001600073ffffffffffffffffffffffffffffffffffffffff1681525090565b508054600082559060005260206000209081019061239a9190612406565b50565b50805460018160011615610100020316600290046000825580601f106123c357506123e2565b601f0160209004906000526020600020908101906123e19190612406565b5b50565b5080546000825590600052602060002090810190612403919061242b565b50565b61242891905b8082111561242457600081600090555060010161240c565b5090565b90565b61245491905b808211156124505760008181612447919061239d565b50600101612431565b5090565b90565b6040518060400160405280600290602082028036833780820191505090505090565b6040518060400160405280600290602082028036833780820191505090505090565b6000813590506124aa8161365a565b92915050565b600082601f8301126124c157600080fd5b81356124d46124cf826133df565b6133b2565b9150818183526020840193506020810190508360005b8381101561251a578135860161250088826125d7565b8452602084019350602083019250506001810190506124ea565b5050505092915050565b600082601f83011261253557600080fd5b813561254861254382613407565b6133b2565b9150818183526020840193506020810190508360005b8381101561258e5781358601612574888261262b565b84526020840193506020830192505060018101905061255e565b5050505092915050565b6000813590506125a781613671565b92915050565b6000813590506125bc81613688565b92915050565b6000815190506125d181613688565b92915050565b600082601f8301126125e857600080fd5b81356125fb6125f68261342f565b6133b2565b9150808252602083016020830185838301111561261757600080fd5b612622838284613607565b50505092915050565b600060c0828403121561263d57600080fd5b61264760c06133b2565b9050600061265784828501612598565b600083015250602061266b848285016126f7565b602083015250604082013567ffffffffffffffff81111561268b57600080fd5b612697848285016125d7565b604083015250606082013567ffffffffffffffff8111156126b757600080fd5b6126c3848285016124b0565b60608301525060806126d7848285016126f7565b60808301525060a06126eb848285016126f7565b60a08301525092915050565b6000813590506127068161369f565b92915050565b60008151905061271b8161369f565b92915050565b600081519050612730816136b6565b92915050565b60006020828403121561274857600080fd5b600082013567ffffffffffffffff81111561276257600080fd5b61276e84828501612524565b91505092915050565b60008060006060848603121561278c57600080fd5b600061279a868287016125ad565b93505060206127ab868287016126f7565b92505060406127bc8682870161249b565b9150509250925092565b600080604083850312156127d957600080fd5b60006127e7858286016126f7565b92505060206127f8858286016125ad565b9150509250929050565b60008060006060848603121561281757600080fd5b6000612825868287016126f7565b9350506020612836868287016125ad565b9250506040612847868287016126f7565b9150509250925092565b6000806000806080858703121561286757600080fd5b6000612875878288016126f7565b9450506020612886878288016125ad565b9350506040612897878288016126f7565b92505060606128a88782880161249b565b91505092959194509250565b600080600080608085870312156128ca57600080fd5b60006128d8878288016126f7565b94505060206128e9878288016126f7565b93505060406128fa878288016125ad565b925050606061290b878288016126f7565b91505092959194509250565b600080600080600060a0868803121561292f57600080fd5b600061293d88828901612721565b955050602061294e888289016125c2565b945050604061295f8882890161270c565b93505060606129708882890161270c565b925050608061298188828901612721565b9150509295509295909350565b600061299a83836129ff565b60208301905092915050565b60006129b28383612c22565b60208301905092915050565b60006129ca8383612c31565b905092915050565b60006129de8383613093565b905092915050565b60006129f28383613123565b6101208301905092915050565b612a088161359f565b82525050565b612a178161358d565b82525050565b612a268161349f565b612a308184613522565b9250612a3b8261345b565b8060005b83811015612a6c578151612a53878261298e565b9650612a5e836134e1565b925050600181019050612a3f565b505050505050565b612a7d816134aa565b612a87818461352d565b9250612a9282613465565b8060005b83811015612ac3578151612aaa87826129a6565b9650612ab5836134ee565b925050600181019050612a96565b505050505050565b6000612ad6826134b5565b612ae08185613538565b935083602082028501612af28561346f565b8060005b85811015612b2e5784840389528151612b0f85826129be565b9450612b1a836134fb565b925060208a01995050600181019050612af6565b50829750879550505050505092915050565b6000612b4b826134c0565b612b558185613549565b935083602082028501612b678561347f565b8060005b85811015612ba35784840389528151612b8485826129d2565b9450612b8f83613508565b925060208a01995050600181019050612b6b565b50829750879550505050505092915050565b6000612bc0826134cb565b612bca818561355a565b9350612bd58361348f565b8060005b83811015612c06578151612bed88826129e6565b9750612bf883613515565b925050600181019050612bd9565b5085935050505092915050565b612c1c816135b1565b82525050565b612c2b816135bd565b82525050565b6000612c3c826134d6565b612c46818561356b565b9350612c56818560208601613616565b612c5f81613649565b840191505092915050565b6000612c75826134d6565b612c7f818561357c565b9350612c8f818560208601613616565b612c9881613649565b840191505092915050565b6000612cb0601a8361357c565b91507f506c6179657220616c726561647920726567697374657265642e0000000000006000830152602082019050919050565b6000612cf060298361357c565b91507f426574206e6f74206d61646520616761696e7374207468652073616d6520707260008301527f69636520666565642e00000000000000000000000000000000000000000000006020830152604082019050919050565b6000612d5660468361357c565b91507f42657474696e6720616d6f756e742070616964206973206e6f7420657175616c60008301527f20746f20616d6f756e7420666f7220776869636820746865206265742077617360208301527f206d6164652e00000000000000000000000000000000000000000000000000006040830152606082019050919050565b6000612de260228361357c565b91507f4e6f2062657473206d61646520666f722062657474696e67206576656e74206960008301527f642e0000000000000000000000000000000000000000000000000000000000006020830152604082019050919050565b6000612e48601b8361357c565b91507f42657474696e67207061697220496420697320696e76616c69642e00000000006000830152602082019050919050565b6000612e8860298361357c565b91507f4f6e6c79206f776e65722063616e20696e697469616c697a652062657474696e60008301527f67206576656e74732e00000000000000000000000000000000000000000000006020830152604082019050919050565b6000612eee601c8361357c565b91507f42657474696e67206576656e7420496420697320696e76616c69642e000000006000830152602082019050919050565b6000612f2e60258361357c565b91507f56616c7565206973206e6f7420657175616c20746f2062657474696e6720616d60008301527f6f756e742e0000000000000000000000000000000000000000000000000000006020830152604082019050919050565b6000612f9460228361357c565b91507f4f6e6c79206f776e65722063616e20656e642062657474696e67206576656e7460008301527f732e0000000000000000000000000000000000000000000000000000000000006020830152604082019050919050565b6000612ffa60238361357c565b91507f42657420616c7265616479206d61646520666f722074686973207363656e617260008301527f696f2e00000000000000000000000000000000000000000000000000000000006020830152604082019050919050565b600061306060178361357c565b91507f4576656e74207363656e6172696f20696e76616c69642e0000000000000000006000830152602082019050919050565b600060c0830160008301516130ab6000860182612c13565b5060208301516130be60208601826131b3565b50604083015184820360408601526130d68282612c31565b915050606083015184820360608601526130f08282612acb565b915050608083015161310560808601826131b3565b5060a083015161311860a08601826131b3565b508091505092915050565b6101208201600082015161313a6000850182612c13565b50602082015161314d60208501826131b3565b50604082015161316060408501826131b3565b50606082015161317360608501826131b3565b5060808201516131866080850182612a1d565b5060a082015161319960c0850182612a74565b5060c08201516131ad610100850182612a0e565b50505050565b6131bc816135e7565b82525050565b6131cb816135e7565b82525050565b600060208201905081810360008301526131eb8184612b40565b905092915050565b6000602082019050818103600083015261320d8184612bb5565b905092915050565b6000602082019050818103600083015261322f8184612c6a565b905092915050565b6000602082019050818103600083015261325081612ca3565b9050919050565b6000602082019050818103600083015261327081612ce3565b9050919050565b6000602082019050818103600083015261329081612d49565b9050919050565b600060208201905081810360008301526132b081612dd5565b9050919050565b600060208201905081810360008301526132d081612e3b565b9050919050565b600060208201905081810360008301526132f081612e7b565b9050919050565b6000602082019050818103600083015261331081612ee1565b9050919050565b6000602082019050818103600083015261333081612f21565b9050919050565b6000602082019050818103600083015261335081612f87565b9050919050565b6000602082019050818103600083015261337081612fed565b9050919050565b6000602082019050818103600083015261339081613053565b9050919050565b60006020820190506133ac60008301846131c2565b92915050565b6000604051905081810181811067ffffffffffffffff821117156133d557600080fd5b8060405250919050565b600067ffffffffffffffff8211156133f657600080fd5b602082029050602081019050919050565b600067ffffffffffffffff82111561341e57600080fd5b602082029050602081019050919050565b600067ffffffffffffffff82111561344657600080fd5b601f19601f8301169050602081019050919050565b6000819050919050565b6000819050919050565b6000819050602082019050919050565b6000819050602082019050919050565b6000819050602082019050919050565b600060029050919050565b600060029050919050565b600081519050919050565b600081519050919050565b600081519050919050565b600081519050919050565b6000602082019050919050565b6000602082019050919050565b6000602082019050919050565b6000602082019050919050565b6000602082019050919050565b600081905092915050565b600081905092915050565b600082825260208201905092915050565b600082825260208201905092915050565b600082825260208201905092915050565b600082825260208201905092915050565b600082825260208201905092915050565b6000613598826135c7565b9050919050565b60006135aa826135c7565b9050919050565b60008115159050919050565b6000819050919050565b600073ffffffffffffffffffffffffffffffffffffffff82169050919050565b6000819050919050565b600069ffffffffffffffffffff82169050919050565b82818337600083830152505050565b60005b83811015613634578082015181840152602081019050613619565b83811115613643576000848401525b50505050565b6000601f19601f8301169050919050565b6136638161358d565b811461366e57600080fd5b50565b61367a816135b1565b811461368557600080fd5b50565b613691816135bd565b811461369c57600080fd5b50565b6136a8816135e7565b81146136b357600080fd5b50565b6136bf816135f1565b81146136ca57600080fd5b5056fea264697066735822122032a61c66236e52984a19e0255de3d8912dbd726dba83c21f8db41ec429a2ca3964736f6c63430006060033",
  "immutableReferences": {},
  "source": "// SPDX-License-Identifier: GPL-3.0\n\npragma solidity >=0.6.1 <0.9.0;\npragma experimental ABIEncoderV2;\n\nimport \"@chainlink/contracts/src/v0.6/interfaces/AggregatorV3Interface.sol\";\n\ncontract BetContractV3 {\n\n    address private _owner;\n    string private _ownerName;\n\n    struct BettingEvent\n    {\n        bool isValid; /*To check if the struct was exlicitly created in the mapping.*/\n        uint256 bettingEventId; /*Monotonically increasing Id within the smart contract.*/\n        string bettingEventDescription;\n        string[] bettingEventScenarios; /*All possbile scenarios on which a bet can be made. Array index used for referring.*/\n        uint256 maxBettingValue; /*Ceiling on betting amount.*/\n        uint256 bettingEventValidity; /*Time frame during which the bet is valid. Not used now.*/\n    }\n    uint256 private _bettingEventIdCounter;\n    mapping(uint256 => BettingEvent) private _bettingEventMap; /*Contains all the betting events that users can try.*/\n    \n    mapping (address => bool) private _bettingPlayerInGame; /* Used to ensure a bet can be made only once from an address*/\n    struct BettingPair\n    {\n        bool isInstantBet; /*To denote that this bet ends the moment a counter bet is made.*/\n        uint256 bettingEventId;\n        uint256 bettingPairId; /*Monotonically increasing Id within the smart contract.*/\n        uint256 bettingAmount;\n        address payable[2] bettingPlayers; /*Index 0 and 1 are players 1 and 2 repectively.*/\n        int256[2] bettingPlayersChoices; /*The index value of scenario in BettingEvent.bettingEventScenarios for each player.*/\n        address externalOracleAddress; /*Used for chainlink queries.*/\n    }\n    mapping (uint256 => BettingPair) private _bettingPairIdToPlayersPairMap; /*All bets across all betting events.*/\n    uint256 private _bettingPairIdCounter;\n    uint256 private _instantBettingPairs; /*Count of all instant bets.*/\n    \n    mapping(uint256 => uint256[]) private _bettingEventIdToPairIdMap; /*List of bets made for each betting event.*/\n    \n    constructor(string memory ownerName) public\n    {\n        require(bytes(ownerName).length != 0, \"Provided owner name is empty\");\n        \n        _owner = msg.sender;\n        _ownerName = ownerName;\n        \n        _bettingEventIdCounter = 0;\n        _bettingPairIdCounter = 0;\n        _instantBettingPairs = 0;\n    }\n    \n    function GetBettingOwner() public view returns(string memory)\n    {\n        return _ownerName;\n    }\n    \n    /*\n    * @Param: bettingEvents -> array of all betting events (struct BettingEvent).\n    * eg:\n    * [\n    *  [true, 0, \"Liverpool vs Manchester\", [\"Liverpool wins\", \"Manchester wins\", \"Draw match\"], 1234, 5000], \n    *  [true, 0, \"Chelsea vs Arsenal\", [\"Chelsea wins\", \"Arsenal wins\", \"Draw match\"], 5678, 9000]\n    * ]\n    */\n    function InitializeBettingEvents(BettingEvent[] memory bettingEvents) public\n    {\n        require(msg.sender == _owner, \"Only owner can initialize betting events.\");\n        _bettingEventIdCounter = 0;\n        _bettingPairIdCounter = 0;\n        _instantBettingPairs = 0;\n        \n        /* Manually fill the data, ideally it should come from chainlink*/\n        uint256 i = 0;\n        for( i = 0; i < bettingEvents.length; i+=1)\n        {\n            _bettingEventIdCounter += 1;\n            _bettingEventMap[_bettingEventIdCounter] = bettingEvents[i];\n            _bettingEventMap[_bettingEventIdCounter].bettingEventId = _bettingEventIdCounter;\n        }\n    }\n    \n    function GetAllBettingEvents() public view returns (BettingEvent[] memory)\n    {\n        BettingEvent[] memory bettingEventsArray = new BettingEvent[](_bettingEventIdCounter);\n        \n        uint256 i = 0;\n        for(i = 1; i <= _bettingEventIdCounter; i+=1)\n        {\n            bettingEventsArray[i - 1] = _bettingEventMap[i];\n        }\n        \n        return bettingEventsArray;\n    }\n    \n    /*\n    * @Param: bettingEventId -> event Id as obtained from call to GetAllBettingEvents.\n    * @Param: bettingEventScenario -> index of scenario in BettingEvent.bettingEventScenario, again obtained from GetAllBettingEvents.\n    * @Param: bettingAmount -> to ensure ether transacted while invoking contract is as expected.\n    */\n    function MakeBet(uint256 bettingEventId, int256 bettingEventScenario, uint256 bettingAmount) public payable returns (uint256)\n    {\n        require(msg.value == bettingAmount, \"Value is not equal to betting amount.\");\n        require(_bettingEventMap[bettingEventId].isValid == true, \"Betting event Id is invalid.\");\n        require((int256(_bettingEventMap[bettingEventId].bettingEventScenarios.length) > bettingEventScenario) && (bettingEventScenario >= 0), \"Event scenario invalid.\");\n        require(_bettingPlayerInGame[msg.sender] == false, \"Player already registered.\");\n        \n        uint256 bettingId = _MakeBet(msg.sender, false, bettingEventId, bettingAmount, bettingEventScenario);\n        _bettingEventIdToPairIdMap[bettingEventId].push(bettingId);\n        \n        return bettingId;\n    }\n    \n    /*\n    * @Param: bettingEventScenario -> claim value for which the bet is made, eg: price of ETH is 120USD, bettingEventScenario = 120USD.\n    * @Param: bettingAmount -> to ensure ether transacted while invoking contract is as expected.\n    * @Param: instantBetResultAggrAddress -> chainlink oracle address from which the truth is retrieved.\n    */\n    function MakeInstantBet(int256 bettingEventScenario, uint256 bettingAmount, address instantBetResultAggrAddress) public payable returns (uint256)\n    {\n        require(msg.value == bettingAmount, \"Value is not equal to betting amount.\");\n        require(_bettingPlayerInGame[msg.sender] == false, \"Player already registered.\");\n        \n        uint256 bettingId = _MakeBet(msg.sender, true, 0, bettingAmount, bettingEventScenario);\n        _bettingPairIdToPlayersPairMap[bettingId].externalOracleAddress = instantBetResultAggrAddress;\n        _instantBettingPairs += 1;\n        \n        return bettingId;\n    }\n    \n    function _MakeBet(address msgSender, bool isInstantBet, uint256 bettingEventId, uint256 bettingAmount, int256 bettingEventScenario) internal returns (uint256)\n    {\n        _bettingPlayerInGame[msgSender] = true;\n        _bettingPairIdCounter += 1;\n        _bettingPairIdToPlayersPairMap[_bettingPairIdCounter].isInstantBet = isInstantBet;\n        _bettingPairIdToPlayersPairMap[_bettingPairIdCounter].bettingPairId = _bettingPairIdCounter;\n        _bettingPairIdToPlayersPairMap[_bettingPairIdCounter].bettingEventId = bettingEventId;\n        _bettingPairIdToPlayersPairMap[_bettingPairIdCounter].bettingAmount = bettingAmount;\n        _bettingPairIdToPlayersPairMap[_bettingPairIdCounter].bettingPlayers[0] = payable(msgSender);\n        _bettingPairIdToPlayersPairMap[_bettingPairIdCounter].bettingPlayersChoices[0] = bettingEventScenario;\n        \n        return _bettingPairIdCounter;\n    }\n    \n    /*\n    * @Param: bettingPairId -> the pair id shared after a call to MakeBet by another pair or a free slot as seen from call to GetAllBets.\n    * @Param: bettingEventId -> event Id as obtained from call to GetAllBettingEvents.\n    * @Param: bettingEventScenario -> index of scenario in BettingEvent.bettingEventScenario, again obtained from GetAllBettingEvents.\n    * @Param: bettingAmount -> to ensure ether transacted while invoking contract is as expected.\n    */\n    function MakeCounterBet(uint256 bettingPairId, uint256 bettingEventId, int256 bettingEventScenario, uint256 bettingAmount) public payable\n    {\n        require(msg.value == bettingAmount, \"Value is not equal to betting amount.\");\n        require(_bettingPairIdToPlayersPairMap[bettingPairId].bettingAmount > 0, \"Betting pair Id is invalid.\");\n        require(_bettingPairIdToPlayersPairMap[bettingPairId].bettingAmount == bettingAmount, \"Betting amount paid is not equal to amount for which the bet was made.\");\n        require(_bettingPairIdToPlayersPairMap[bettingPairId].bettingEventId == bettingEventId, \"Betting event Id is invalid.\");\n        require((int256(_bettingEventMap[bettingEventId].bettingEventScenarios.length) > bettingEventScenario) && (bettingEventScenario >= 0), \"Event scenario invalid.\");\n        require(_bettingPlayerInGame[msg.sender] == false, \"Player already registered.\");\n        require(_bettingPairIdToPlayersPairMap[bettingPairId].bettingPlayersChoices[0] != bettingEventScenario, \"Bet already made for this scenario.\");\n        \n        _bettingPlayerInGame[msg.sender] = true;\n        _bettingPairIdToPlayersPairMap[_bettingPairIdCounter].bettingPlayers[1] = payable(msg.sender);\n        _bettingPairIdToPlayersPairMap[_bettingPairIdCounter].bettingPlayersChoices[1] = bettingEventScenario;\n    }\n    \n    /*\n    * @Param: bettingPairId -> the pair id shared after a call to MakeBet by another pair or a free slot as seen from call to GetAllBets.\n    * @Param: bettingEventScenario -> claim value for which the bet is made, eg: price of ETH is 120USD, bettingEventScenario = 120USD.\n    * @Param: bettingAmount -> to ensure ether transacted while invoking contract is as expected.\n    * @Param: instantBetResultAggrAddress -> chainlink oracle address from which the truth is retrieved.\n    */\n    function MakeInstantCounterBet(uint256 bettingPairId, int256 bettingEventScenario, uint256 bettingAmount, address instantBetResultAggrAddress) public payable\n    {\n        require(msg.value == bettingAmount, \"Value is not equal to betting amount.\");\n        require(_bettingPairIdToPlayersPairMap[bettingPairId].bettingAmount > 0, \"Betting pair Id is invalid.\");\n        require(_bettingPairIdToPlayersPairMap[bettingPairId].bettingAmount == bettingAmount, \"Betting amount paid is not equal to amount for which the bet was made.\");\n        require(_bettingPairIdToPlayersPairMap[bettingPairId].externalOracleAddress == instantBetResultAggrAddress, \"Bet not made against the same price feed.\");\n        require(_bettingPlayerInGame[msg.sender] == false, \"Player already registered.\");\n        \n        AggregatorV3Interface externalOracle = AggregatorV3Interface(instantBetResultAggrAddress);\n        /*Get current value of entity. Hardcoding for ETH-USD price logic here.*/\n        (/* uint80 roundID */, int256 curPrice, /* uint startedAt */, /* uint timeStamp */, /* uint80 answeredInRound */) \n            = externalOracle.latestRoundData();\n        \n        int256 better1PriceDelta = AbsDelta(_bettingPairIdToPlayersPairMap[bettingPairId].bettingPlayersChoices[0], curPrice);\n        int256 better2PriceDelta = AbsDelta(bettingEventScenario, curPrice);\n        \n        if(better1PriceDelta < better2PriceDelta)\n        {\n            _bettingPairIdToPlayersPairMap[bettingPairId].bettingPlayers[0].transfer(2 * bettingAmount);\n        }\n        else if(better2PriceDelta < better1PriceDelta)\n        {\n            payable(msg.sender).transfer(2 * bettingAmount);\n        }\n        else if((better1PriceDelta == better2PriceDelta) && (better2PriceDelta == 0))\n        {\n            _bettingPairIdToPlayersPairMap[bettingPairId].bettingPlayers[0].transfer(bettingAmount);\n            payable(msg.sender).transfer(bettingAmount);\n        }\n        else\n        {\n            /*You all lose money, ha ha ha.*/\n        }\n        \n        /*Cleanup*/\n        _instantBettingPairs -= 1;\n        _bettingPlayerInGame[_bettingPairIdToPlayersPairMap[bettingPairId].bettingPlayers[0]] = false;\n        delete _bettingPairIdToPlayersPairMap[bettingPairId];\n    }\n    \n    function AbsDelta(int256 betterAmount, int256 truthAmount) internal pure returns (int256)\n    {\n        int256 betterPriceDelta = 0;\n        if(betterAmount >= truthAmount)\n        {\n            betterPriceDelta = betterAmount - truthAmount;\n        }\n        else\n        {\n            betterPriceDelta = truthAmount - betterAmount;\n        }\n        return betterPriceDelta;\n    }\n    \n    function GetAllBets() public view returns (BettingPair [] memory)\n    {\n        BettingPair[] memory bettingPairsArray = new BettingPair[](_bettingPairIdCounter);\n        \n        uint256 i = 0;\n        for(i = 1; i <= _bettingPairIdCounter; i+=1)\n        {\n            bettingPairsArray[i - 1] = _bettingPairIdToPlayersPairMap[i];\n        }\n        return bettingPairsArray;\n    }\n    \n    function GetAllInstantBets() public view returns (BettingPair [] memory)\n    {\n        BettingPair[] memory bettingPairsArray = new BettingPair[](_instantBettingPairs);\n        \n        uint256 i = 0;\n        uint256 j = 0;\n        for(i = 1; i <= _bettingPairIdCounter; i+=1)\n        {\n            if(_bettingPairIdToPlayersPairMap[i].isInstantBet == true)\n            {\n                bettingPairsArray[j] = _bettingPairIdToPlayersPairMap[i];\n                j += 1;\n            }\n        }\n        return bettingPairsArray;\n    }\n    \n    /* Ideally the information passed as arguments should come from chainlink*/\n    function EndBettingEvent(uint256 bettingEventId, int256 winBettingEventScenario) public\n    {\n        require(msg.sender == _owner, \"Only owner can end betting events.\");\n        require(_bettingEventMap[bettingEventId].isValid == true, \"Betting event Id is invalid.\");\n        require((int256(_bettingEventMap[bettingEventId].bettingEventScenarios.length) > winBettingEventScenario) && (winBettingEventScenario >= 0), \"Event scenario invalid.\");\n        require(_bettingEventIdToPairIdMap[bettingEventId].length > 0, \"No bets made for betting event id.\");\n        \n        uint32 i = 0;\n        for(i = 0; i < _bettingEventIdToPairIdMap[bettingEventId].length; i+=1)\n        {\n            BettingPair memory bPair = _bettingPairIdToPlayersPairMap[_bettingEventIdToPairIdMap[bettingEventId][i]];\n            if (bPair.bettingPlayersChoices[0] == winBettingEventScenario)\n            {\n                if(_bettingPlayerInGame[bPair.bettingPlayers[1]] == true) /* Another player made a counter bet*/\n                {\n                    bPair.bettingPlayers[0].transfer(2 * bPair.bettingAmount);\n                }\n                else /* Give the amount back if there was only one player who made the bet.*/\n                {\n                    bPair.bettingPlayers[0].transfer(bPair.bettingAmount);\n                }\n            }\n            else if(bPair.bettingPlayersChoices[1] == winBettingEventScenario)\n            {\n                if(_bettingPlayerInGame[bPair.bettingPlayers[1]] == true) /* Ensure that there is a second player.*/\n                {\n                    bPair.bettingPlayers[1].transfer(2 * bPair.bettingAmount);\n                }\n            }\n            else\n            {}\n            /*Mark players as having finished the current bet.*/\n            _bettingPlayerInGame[bPair.bettingPlayers[0]] = false;\n            _bettingPlayerInGame[bPair.bettingPlayers[1]] = false;\n            \n            delete _bettingPairIdToPlayersPairMap[_bettingEventIdToPairIdMap[bettingEventId][i]];\n        }\n        delete _bettingEventIdToPairIdMap[bettingEventId];\n        delete _bettingEventMap[bettingEventId];\n    }\n}",
  "sourcePath": "/Volumes/Transcend/chain/chainlink_tutorial/bet-v2/contracts/BettingWithoutChainLink.sol",
  "compiler": {
    "name": "solc",
    "version": "0.6.6+commit.6c089d02.Emscripten.clang"
  },
  "schemaVersion": "3.4.1",
  "updatedAt": "2021-06-07T01:00:02.748Z",
  "networkType": "ethereum",
  "devdoc": {
    "methods": {}
  },
  "userdoc": {
    "methods": {}
  }
}