{
  "contractName": "BetContractV2",
  "abi": [
    {
      "inputs": [],
      "stateMutability": "nonpayable",
      "type": "constructor"
    },
    {
      "anonymous": false,
      "inputs": [
        {
          "indexed": false,
          "internalType": "address",
          "name": "player1",
          "type": "address"
        },
        {
          "indexed": false,
          "internalType": "address",
          "name": "player2",
          "type": "address"
        }
      ],
      "name": "BetStartsEvent",
      "type": "event"
    },
    {
      "anonymous": false,
      "inputs": [
        {
          "indexed": false,
          "internalType": "address",
          "name": "winner",
          "type": "address"
        },
        {
          "indexed": false,
          "internalType": "uint256",
          "name": "gains",
          "type": "uint256"
        }
      ],
      "name": "EndOfBetEvent",
      "type": "event"
    },
    {
      "anonymous": false,
      "inputs": [
        {
          "indexed": false,
          "internalType": "uint256",
          "name": "player1Deposit",
          "type": "uint256"
        },
        {
          "indexed": false,
          "internalType": "uint256",
          "name": "player2Deposit",
          "type": "uint256"
        }
      ],
      "name": "EndOfRoundEvent",
      "type": "event"
    },
    {
      "inputs": [],
      "name": "currentPriceFromChainLink",
      "outputs": [
        {
          "internalType": "int256",
          "name": "",
          "type": "int256"
        }
      ],
      "stateMutability": "view",
      "type": "function"
    },
    {
      "inputs": [],
      "name": "gains",
      "outputs": [
        {
          "internalType": "uint256",
          "name": "",
          "type": "uint256"
        }
      ],
      "stateMutability": "view",
      "type": "function"
    },
    {
      "inputs": [],
      "name": "gameFinished",
      "outputs": [
        {
          "internalType": "bool",
          "name": "",
          "type": "bool"
        }
      ],
      "stateMutability": "view",
      "type": "function"
    },
    {
      "inputs": [],
      "name": "player1",
      "outputs": [
        {
          "internalType": "address",
          "name": "",
          "type": "address"
        }
      ],
      "stateMutability": "view",
      "type": "function"
    },
    {
      "inputs": [],
      "name": "player1Deposit",
      "outputs": [
        {
          "internalType": "uint256",
          "name": "",
          "type": "uint256"
        }
      ],
      "stateMutability": "view",
      "type": "function"
    },
    {
      "inputs": [],
      "name": "player1Played",
      "outputs": [
        {
          "internalType": "bool",
          "name": "",
          "type": "bool"
        }
      ],
      "stateMutability": "view",
      "type": "function"
    },
    {
      "inputs": [],
      "name": "player1PricePrediction",
      "outputs": [
        {
          "internalType": "int256",
          "name": "",
          "type": "int256"
        }
      ],
      "stateMutability": "view",
      "type": "function"
    },
    {
      "inputs": [],
      "name": "player2",
      "outputs": [
        {
          "internalType": "address",
          "name": "",
          "type": "address"
        }
      ],
      "stateMutability": "view",
      "type": "function"
    },
    {
      "inputs": [],
      "name": "player2Deposit",
      "outputs": [
        {
          "internalType": "uint256",
          "name": "",
          "type": "uint256"
        }
      ],
      "stateMutability": "view",
      "type": "function"
    },
    {
      "inputs": [],
      "name": "player2Played",
      "outputs": [
        {
          "internalType": "bool",
          "name": "",
          "type": "bool"
        }
      ],
      "stateMutability": "view",
      "type": "function"
    },
    {
      "inputs": [],
      "name": "player2PricePrediction",
      "outputs": [
        {
          "internalType": "int256",
          "name": "",
          "type": "int256"
        }
      ],
      "stateMutability": "view",
      "type": "function"
    },
    {
      "inputs": [],
      "name": "priceFeedAddress",
      "outputs": [
        {
          "internalType": "address",
          "name": "",
          "type": "address"
        }
      ],
      "stateMutability": "view",
      "type": "function"
    },
    {
      "inputs": [],
      "name": "priceFeedName",
      "outputs": [
        {
          "internalType": "string",
          "name": "",
          "type": "string"
        }
      ],
      "stateMutability": "view",
      "type": "function"
    },
    {
      "inputs": [],
      "name": "theWinner",
      "outputs": [
        {
          "internalType": "address",
          "name": "",
          "type": "address"
        }
      ],
      "stateMutability": "view",
      "type": "function"
    },
    {
      "inputs": [],
      "name": "withdrawCompleted",
      "outputs": [
        {
          "internalType": "bool",
          "name": "",
          "type": "bool"
        }
      ],
      "stateMutability": "view",
      "type": "function"
    },
    {
      "inputs": [],
      "name": "getLatestPrice",
      "outputs": [
        {
          "internalType": "int256",
          "name": "",
          "type": "int256"
        }
      ],
      "stateMutability": "view",
      "type": "function"
    },
    {
      "inputs": [
        {
          "internalType": "string",
          "name": "_priceFeedName",
          "type": "string"
        },
        {
          "internalType": "address",
          "name": "_priceFeed",
          "type": "address"
        },
        {
          "internalType": "int256",
          "name": "pricePrediction",
          "type": "int256"
        }
      ],
      "name": "createBet",
      "outputs": [],
      "stateMutability": "payable",
      "type": "function"
    },
    {
      "inputs": [
        {
          "internalType": "int256",
          "name": "pricePrediction",
          "type": "int256"
        }
      ],
      "name": "joinBet",
      "outputs": [],
      "stateMutability": "payable",
      "type": "function"
    },
    {
      "inputs": [],
      "name": "withdraw",
      "outputs": [],
      "stateMutability": "nonpayable",
      "type": "function"
    }
  ],
  "bytecode": "0x608060405234801561001057600080fd5b5033600360006101000a81548173ffffffffffffffffffffffffffffffffffffffff021916908373ffffffffffffffffffffffffffffffffffffffff160217905550610e8d806100616000396000f3fe6080604052600436106101145760003560e01c8063a5b9d846116100a0578063d30895e411610064578063d30895e4146104e2578063dcc84fd714610539578063e0abca0b14610564578063f0f32497146105bb578063f5d2c20d146105ea57610114565b8063a5b9d84614610403578063ac653b291461042e578063c804eacc14610459578063c93f0c1714610484578063cfc9d198146104b357610114565b80636509d723116100e75780636509d723146101e157806365f0bc901461020c57806389f677e4146102f15780638e15f473146103815780639d24e482146103ac57610114565b80632533d882146101195780632e37eda3146101445780633ccfd60b1461017357806359a5f12d1461018a575b600080fd5b34801561012557600080fd5b5061012e610618565b6040518082815260200191505060405180910390f35b34801561015057600080fd5b5061015961061e565b604051808215151515815260200191505060405180910390f35b34801561017f57600080fd5b50610188610631565b005b34801561019657600080fd5b5061019f610740565b604051808273ffffffffffffffffffffffffffffffffffffffff1673ffffffffffffffffffffffffffffffffffffffff16815260200191505060405180910390f35b3480156101ed57600080fd5b506101f6610766565b6040518082815260200191505060405180910390f35b6102ef6004803603606081101561022257600080fd5b810190808035906020019064010000000081111561023f57600080fd5b82018360208201111561025157600080fd5b8035906020019184600183028401116401000000008311171561027357600080fd5b91908080601f016020809104026020016040519081016040528093929190818152602001838380828437600081840152601f19601f820116905080830192505050505050509192919290803573ffffffffffffffffffffffffffffffffffffffff1690602001909291908035906020019092919050505061076c565b005b3480156102fd57600080fd5b5061030661088c565b6040518080602001828103825283818151815260200191508051906020019080838360005b8381101561034657808201518184015260208101905061032b565b50505050905090810190601f1680156103735780820380516001836020036101000a031916815260200191505b509250505060405180910390f35b34801561038d57600080fd5b5061039661092a565b6040518082815260200191505060405180910390f35b3480156103b857600080fd5b506103c1610a04565b604051808273ffffffffffffffffffffffffffffffffffffffff1673ffffffffffffffffffffffffffffffffffffffff16815260200191505060405180910390f35b34801561040f57600080fd5b50610418610a2a565b6040518082815260200191505060405180910390f35b34801561043a57600080fd5b50610443610a30565b6040518082815260200191505060405180910390f35b34801561046557600080fd5b5061046e610a36565b6040518082815260200191505060405180910390f35b34801561049057600080fd5b50610499610a3c565b604051808215151515815260200191505060405180910390f35b3480156104bf57600080fd5b506104c8610a4f565b604051808215151515815260200191505060405180910390f35b3480156104ee57600080fd5b506104f7610a62565b604051808273ffffffffffffffffffffffffffffffffffffffff1673ffffffffffffffffffffffffffffffffffffffff16815260200191505060405180910390f35b34801561054557600080fd5b5061054e610a88565b6040518082815260200191505060405180910390f35b34801561057057600080fd5b50610579610a8e565b604051808273ffffffffffffffffffffffffffffffffffffffff1673ffffffffffffffffffffffffffffffffffffffff16815260200191505060405180910390f35b3480156105c757600080fd5b506105d0610ab4565b604051808215151515815260200191505060405180910390f35b6106166004803603602081101561060057600080fd5b8101908080359060200190929190505050610ac7565b005b600b5481565b600960019054906101000a900460ff1681565b600960009054906101000a900460ff16801561065a5750600960019054906101000a900460ff16155b80156106b357503373ffffffffffffffffffffffffffffffffffffffff16600960029054906101000a900473ffffffffffffffffffffffffffffffffffffffff1673ffffffffffffffffffffffffffffffffffffffff16145b6106bc57600080fd5b6000600a5490506000600a81905550600060058190555060006006819055506001600960016101000a81548160ff0219169083151502179055503373ffffffffffffffffffffffffffffffffffffffff166108fc829081150290604051600060405180830381858888f1935050505015801561073c573d6000803e3d6000fd5b5050565b600460009054906101000a900473ffffffffffffffffffffffffffffffffffffffff1681565b60085481565b600360009054906101000a900473ffffffffffffffffffffffffffffffffffffffff1673ffffffffffffffffffffffffffffffffffffffff163373ffffffffffffffffffffffffffffffffffffffff16146107c657600080fd5b6001600460146101000a81548160ff021916908315150217905550346005819055508060078190555081600160006101000a81548173ffffffffffffffffffffffffffffffffffffffff021916908373ffffffffffffffffffffffffffffffffffffffff1602179055508260029080519060200190610846929190610db2565b50816000806101000a81548173ffffffffffffffffffffffffffffffffffffffff021916908373ffffffffffffffffffffffffffffffffffffffff160217905550505050565b60028054600181600116156101000203166002900480601f0160208091040260200160405190810160405280929190818152602001828054600181600116156101000203166002900480156109225780601f106108f757610100808354040283529160200191610922565b820191906000526020600020905b81548152906001019060200180831161090557829003601f168201915b505050505081565b6000806000809054906101000a900473ffffffffffffffffffffffffffffffffffffffff1673ffffffffffffffffffffffffffffffffffffffff1663feaf968c6040518163ffffffff1660e01b815260040160a06040518083038186803b15801561099457600080fd5b505afa1580156109a8573d6000803e3d6000fd5b505050506040513d60a08110156109be57600080fd5b8101908080519060200190929190805190602001909291908051906020019092919080519060200190929190805190602001909291905050505050509150508091505090565b600960029054906101000a900473ffffffffffffffffffffffffffffffffffffffff1681565b60065481565b600a5481565b60055481565b600460159054906101000a900460ff1681565b600460149054906101000a900460ff1681565b600360009054906101000a900473ffffffffffffffffffffffffffffffffffffffff1681565b60075481565b600160009054906101000a900473ffffffffffffffffffffffffffffffffffffffff1681565b600960009054906101000a900460ff1681565b600960009054906101000a900460ff16158015610b325750600073ffffffffffffffffffffffffffffffffffffffff16600460009054906101000a900473ffffffffffffffffffffffffffffffffffffffff1673ffffffffffffffffffffffffffffffffffffffff16145b8015610b8c5750600360009054906101000a900473ffffffffffffffffffffffffffffffffffffffff1673ffffffffffffffffffffffffffffffffffffffff163373ffffffffffffffffffffffffffffffffffffffff1614155b610b9557600080fd5b33600460006101000a81548173ffffffffffffffffffffffffffffffffffffffff021916908373ffffffffffffffffffffffffffffffffffffffff1602179055506001600460156101000a81548160ff0219169083151502179055503460068190555080600881905550600460149054906101000a900460ff168015610c275750600460159054906101000a900460ff165b15610cba57610c3461092a565b600b81905550610c49600854600b5403610cbd565b610c58600754600b5403610cbd565b13610c8d57610c88600360009054906101000a900473ffffffffffffffffffffffffffffffffffffffff16610cd9565b610cb9565b610cb8600460009054906101000a900473ffffffffffffffffffffffffffffffffffffffff16610cd9565b5b5b50565b600080821215610cd05781600003610cd2565b815b9050919050565b6001600960006101000a81548160ff02191690831515021790555080600960026101000a81548173ffffffffffffffffffffffffffffffffffffffff021916908373ffffffffffffffffffffffffffffffffffffffff16021790555060065460055401600a819055507fb92c2b787ad77de767427bc06dcf1d73bff20efa895eb4f5b114faa162d48db881600a54604051808373ffffffffffffffffffffffffffffffffffffffff1673ffffffffffffffffffffffffffffffffffffffff1681526020018281526020019250505060405180910390a150565b828054600181600116156101000203166002900490600052602060002090601f016020900481019282601f10610df357805160ff1916838001178555610e21565b82800160010185558215610e21579182015b82811115610e20578251825591602001919060010190610e05565b5b509050610e2e9190610e32565b5090565b610e5491905b80821115610e50576000816000905550600101610e38565b5090565b9056fea26469706673582212203191490f892c36480f23257ec7d6244ad3047c55b2622b0fc8336b8f4af172ad64736f6c63430006060033",
  "immutableReferences": {},
  "source": "pragma solidity ^0.6.6;\n\nimport \"@chainlink/contracts/src/v0.6/interfaces/AggregatorV3Interface.sol\";\n\ncontract BetContractV2 {\n\n    \n    AggregatorV3Interface internal priceFeed;\n    address public priceFeedAddress;\n    string public priceFeedName;\n\n    /**\n    * Our Bettors\n    */\n\taddress public player1;\n\taddress public player2;\n\n\tbool public player1Played;\n\tbool public player2Played;\n\n\tuint public player1Deposit;\n\tuint public player2Deposit;\n\n    int public player1PricePrediction;\n    int public player2PricePrediction;\n\n\tbool public gameFinished;\n    bool public withdrawCompleted;\n    address public theWinner;\n    uint public gains;\n\n    int public currentPriceFromChainLink;\n    \n    /**\n    * The logs that will be emitted in every step of the contract's life cycle\n    */\n\tevent BetStartsEvent(address player1, address player2);\n\tevent EndOfRoundEvent(uint player1Deposit, uint player2Deposit);\n\tevent EndOfBetEvent(address winner, uint gains);\n\n    /**\n     * Network: Kovan\n     * Aggregator: LINK/USD\n     * Address: 0x396c5E36DD0a0F5a5D33dae44368D4193f69a1F0\n     https://docs.chain.link/docs/ethereum-addresses/\n     */\n    constructor() public {\n        player1 = msg.sender;\n    }\n\n    /**\n     * Returns the latest price\n     */\n    function getLatestPrice() public view returns (int) {\n        (\n            /* uint80 roundID */,\n            int price,\n            /* uint startedAt */,\n            /* uint timeStamp */,\n            /* uint80 answeredInRound */\n        ) = priceFeed.latestRoundData();\n        return price;\n    }\n\n    function createBet(string memory _priceFeedName, address _priceFeed, int pricePrediction) public payable {\n       require(msg.sender == player1);\n\n       player1Played = true;\n       player1Deposit = msg.value;\n       player1PricePrediction = pricePrediction; \n\n       // Bet creator will decide which price the bet will be on\n       priceFeedAddress = _priceFeed;\n       priceFeedName = _priceFeedName;\n       priceFeed = AggregatorV3Interface(_priceFeed);\n    }\n\n    /**\n    * Every round a player can put a sum of ether, if one of the player put in twice or\n    * more the money (in total) than the other did, the first wins\n    */\n    function joinBet(int pricePrediction) public payable {\n    \trequire(!gameFinished && player2 == address(0) && msg.sender != player1);\n        \n        player2 = msg.sender;        \n        player2Played = true;\n    \tplayer2Deposit = msg.value;\n        player2PricePrediction = pricePrediction; \n\n    \tif(player1Played && player2Played) {\n            currentPriceFromChainLink = getLatestPrice();\n\n            //Check who is closest to the price and declare them the winner.            \n    \t\tif(abs(currentPriceFromChainLink - player1PricePrediction) <=\n             abs(currentPriceFromChainLink - player2PricePrediction)) {\n    \t\t\tendOfGame(player1);\n    \t\t} else {\n    \t\t\tendOfGame(player2);\n    \t\t}\n    \t}\n    }\n\n    function abs(int x) private pure returns (int) {\n        return x >= 0 ? x : -x;\n    }\n\n    function endOfRound() internal {\n    \tplayer1Played = false;\n    \tplayer2Played = false;\n\n    \temit EndOfRoundEvent(player1Deposit, player2Deposit);\n    }\n\n    function endOfGame(address winner) internal {\n        gameFinished = true;\n        theWinner = winner;\n        gains = player1Deposit + player2Deposit;\n        emit EndOfBetEvent(winner, gains);\n    }\n\n    /**\n    * The withdraw function, following the withdraw pattern shown and explained here:\n    * http://solidity.readthedocs.io/en/develop/common-patterns.html#withdrawal-from-contracts\n    */\n    function withdraw() public {\n        require(gameFinished && !withdrawCompleted && theWinner == msg.sender);\n\n        uint amount = gains;\n\n        // Clean out the current state\n        gains = 0;\n        player1Deposit = 0;\n        player2Deposit = 0;\n        withdrawCompleted = true;\n         \n        msg.sender.transfer(amount);\n    }\n}",
  "sourcePath": "/Volumes/Transcend/chain/chainlink_tutorial/bet-v2/contracts/BetContractV2.sol",
  "compiler": {
    "name": "solc",
    "version": "0.6.6+commit.6c089d02.Emscripten.clang"
  },
  "schemaVersion": "3.4.1",
  "updatedAt": "2021-06-07T00:57:10.172Z",
  "devdoc": {
    "methods": {}
  },
  "userdoc": {
    "methods": {
      "constructor": "Network: Kovan Aggregator: LINK/USD Address: 0x396c5E36DD0a0F5a5D33dae44368D4193f69a1F0 https://docs.chain.link/docs/ethereum-addresses/",
      "getLatestPrice()": {
        "notice": "Returns the latest price"
      },
      "joinBet(int256)": {
        "notice": "Every round a player can put a sum of ether, if one of the player put in twice or more the money (in total) than the other did, the first wins"
      },
      "withdraw()": {
        "notice": "The withdraw function, following the withdraw pattern shown and explained here: http://solidity.readthedocs.io/en/develop/common-patterns.html#withdrawal-from-contracts"
      }
    }
  }
}