{
  "contractName": "BetContract",
  "abi": [
    {
      "inputs": [],
      "stateMutability": "nonpayable",
      "type": "constructor"
    },
    {
      "anonymous": false,
      "inputs": [
        {
          "indexed": false,
          "internalType": "address",
          "name": "player1",
          "type": "address"
        },
        {
          "indexed": false,
          "internalType": "address",
          "name": "player2",
          "type": "address"
        }
      ],
      "name": "BetStartsEvent",
      "type": "event"
    },
    {
      "anonymous": false,
      "inputs": [
        {
          "indexed": false,
          "internalType": "address",
          "name": "winner",
          "type": "address"
        },
        {
          "indexed": false,
          "internalType": "uint256",
          "name": "gains",
          "type": "uint256"
        }
      ],
      "name": "EndOfBetEvent",
      "type": "event"
    },
    {
      "anonymous": false,
      "inputs": [
        {
          "indexed": false,
          "internalType": "uint256",
          "name": "player1Deposit",
          "type": "uint256"
        },
        {
          "indexed": false,
          "internalType": "uint256",
          "name": "player2Deposit",
          "type": "uint256"
        }
      ],
      "name": "EndOfRoundEvent",
      "type": "event"
    },
    {
      "inputs": [],
      "name": "currentPriceFromChainLink",
      "outputs": [
        {
          "internalType": "int256",
          "name": "",
          "type": "int256"
        }
      ],
      "stateMutability": "view",
      "type": "function"
    },
    {
      "inputs": [],
      "name": "gains",
      "outputs": [
        {
          "internalType": "uint256",
          "name": "",
          "type": "uint256"
        }
      ],
      "stateMutability": "view",
      "type": "function"
    },
    {
      "inputs": [],
      "name": "gameFinished",
      "outputs": [
        {
          "internalType": "bool",
          "name": "",
          "type": "bool"
        }
      ],
      "stateMutability": "view",
      "type": "function"
    },
    {
      "inputs": [],
      "name": "player1",
      "outputs": [
        {
          "internalType": "address",
          "name": "",
          "type": "address"
        }
      ],
      "stateMutability": "view",
      "type": "function"
    },
    {
      "inputs": [],
      "name": "player1Deposit",
      "outputs": [
        {
          "internalType": "uint256",
          "name": "",
          "type": "uint256"
        }
      ],
      "stateMutability": "view",
      "type": "function"
    },
    {
      "inputs": [],
      "name": "player1Played",
      "outputs": [
        {
          "internalType": "bool",
          "name": "",
          "type": "bool"
        }
      ],
      "stateMutability": "view",
      "type": "function"
    },
    {
      "inputs": [],
      "name": "player1PricePrediction",
      "outputs": [
        {
          "internalType": "int256",
          "name": "",
          "type": "int256"
        }
      ],
      "stateMutability": "view",
      "type": "function"
    },
    {
      "inputs": [],
      "name": "player2",
      "outputs": [
        {
          "internalType": "address",
          "name": "",
          "type": "address"
        }
      ],
      "stateMutability": "view",
      "type": "function"
    },
    {
      "inputs": [],
      "name": "player2Deposit",
      "outputs": [
        {
          "internalType": "uint256",
          "name": "",
          "type": "uint256"
        }
      ],
      "stateMutability": "view",
      "type": "function"
    },
    {
      "inputs": [],
      "name": "player2Played",
      "outputs": [
        {
          "internalType": "bool",
          "name": "",
          "type": "bool"
        }
      ],
      "stateMutability": "view",
      "type": "function"
    },
    {
      "inputs": [],
      "name": "player2PricePrediction",
      "outputs": [
        {
          "internalType": "int256",
          "name": "",
          "type": "int256"
        }
      ],
      "stateMutability": "view",
      "type": "function"
    },
    {
      "inputs": [],
      "name": "priceFeedAddress",
      "outputs": [
        {
          "internalType": "address",
          "name": "",
          "type": "address"
        }
      ],
      "stateMutability": "view",
      "type": "function"
    },
    {
      "inputs": [],
      "name": "theWinner",
      "outputs": [
        {
          "internalType": "address",
          "name": "",
          "type": "address"
        }
      ],
      "stateMutability": "view",
      "type": "function"
    },
    {
      "inputs": [],
      "name": "getLatestPrice",
      "outputs": [
        {
          "internalType": "int256",
          "name": "",
          "type": "int256"
        }
      ],
      "stateMutability": "view",
      "type": "function"
    },
    {
      "inputs": [
        {
          "internalType": "address",
          "name": "_priceFeed",
          "type": "address"
        },
        {
          "internalType": "int256",
          "name": "pricePrediction",
          "type": "int256"
        }
      ],
      "name": "createBet",
      "outputs": [],
      "stateMutability": "payable",
      "type": "function"
    },
    {
      "inputs": [
        {
          "internalType": "int256",
          "name": "pricePrediction",
          "type": "int256"
        }
      ],
      "name": "joinBet",
      "outputs": [],
      "stateMutability": "payable",
      "type": "function"
    },
    {
      "inputs": [],
      "name": "withdraw",
      "outputs": [],
      "stateMutability": "nonpayable",
      "type": "function"
    }
  ],
  "bytecode": "0x608060405234801561001057600080fd5b5033600260006101000a81548173ffffffffffffffffffffffffffffffffffffffff021916908373ffffffffffffffffffffffffffffffffffffffff160217905550610b7f806100616000396000f3fe6080604052600436106100fe5760003560e01c8063ac653b2911610095578063d30895e411610064578063d30895e414610376578063dcc84fd7146103cd578063e0abca0b146103f8578063f0f324971461044f578063f5d2c20d1461047e576100fe565b8063ac653b29146102c2578063c804eacc146102ed578063c93f0c1714610318578063cfc9d19814610347576100fe565b806367c038a7116100d157806367c038a7146101c75780638e15f473146102155780639d24e48214610240578063a5b9d84614610297576100fe565b80632533d882146101035780633ccfd60b1461012e57806359a5f12d146101455780636509d7231461019c575b600080fd5b34801561010f57600080fd5b506101186104ac565b6040518082815260200191505060405180910390f35b34801561013a57600080fd5b506101436104b2565b005b34801561015157600080fd5b5061015a61058d565b604051808273ffffffffffffffffffffffffffffffffffffffff1673ffffffffffffffffffffffffffffffffffffffff16815260200191505060405180910390f35b3480156101a857600080fd5b506101b16105b3565b6040518082815260200191505060405180910390f35b610213600480360360408110156101dd57600080fd5b81019080803573ffffffffffffffffffffffffffffffffffffffff169060200190929190803590602001909291905050506105b9565b005b34801561022157600080fd5b5061022a6106c1565b6040518082815260200191505060405180910390f35b34801561024c57600080fd5b5061025561079b565b604051808273ffffffffffffffffffffffffffffffffffffffff1673ffffffffffffffffffffffffffffffffffffffff16815260200191505060405180910390f35b3480156102a357600080fd5b506102ac6107c1565b6040518082815260200191505060405180910390f35b3480156102ce57600080fd5b506102d76107c7565b6040518082815260200191505060405180910390f35b3480156102f957600080fd5b506103026107cd565b6040518082815260200191505060405180910390f35b34801561032457600080fd5b5061032d6107d3565b604051808215151515815260200191505060405180910390f35b34801561035357600080fd5b5061035c6107e6565b604051808215151515815260200191505060405180910390f35b34801561038257600080fd5b5061038b6107f9565b604051808273ffffffffffffffffffffffffffffffffffffffff1673ffffffffffffffffffffffffffffffffffffffff16815260200191505060405180910390f35b3480156103d957600080fd5b506103e261081f565b6040518082815260200191505060405180910390f35b34801561040457600080fd5b5061040d610825565b604051808273ffffffffffffffffffffffffffffffffffffffff1673ffffffffffffffffffffffffffffffffffffffff16815260200191505060405180910390f35b34801561045b57600080fd5b5061046461084b565b604051808215151515815260200191505060405180910390f35b6104aa6004803603602081101561049457600080fd5b810190808035906020019092919050505061085e565b005b600a5481565b600860009054906101000a900460ff16801561051b57503373ffffffffffffffffffffffffffffffffffffffff16600860019054906101000a900473ffffffffffffffffffffffffffffffffffffffff1673ffffffffffffffffffffffffffffffffffffffff16145b61052457600080fd5b600060095490506000600981905550600060048190555060006005819055503373ffffffffffffffffffffffffffffffffffffffff166108fc829081150290604051600060405180830381858888f19350505050158015610589573d6000803e3d6000fd5b5050565b600360009054906101000a900473ffffffffffffffffffffffffffffffffffffffff1681565b60075481565b600260009054906101000a900473ffffffffffffffffffffffffffffffffffffffff1673ffffffffffffffffffffffffffffffffffffffff163373ffffffffffffffffffffffffffffffffffffffff161461061357600080fd5b6001600360146101000a81548160ff021916908315150217905550346004819055508060068190555081600160006101000a81548173ffffffffffffffffffffffffffffffffffffffff021916908373ffffffffffffffffffffffffffffffffffffffff160217905550816000806101000a81548173ffffffffffffffffffffffffffffffffffffffff021916908373ffffffffffffffffffffffffffffffffffffffff1602179055505050565b6000806000809054906101000a900473ffffffffffffffffffffffffffffffffffffffff1673ffffffffffffffffffffffffffffffffffffffff1663feaf968c6040518163ffffffff1660e01b815260040160a06040518083038186803b15801561072b57600080fd5b505afa15801561073f573d6000803e3d6000fd5b505050506040513d60a081101561075557600080fd5b8101908080519060200190929190805190602001909291908051906020019092919080519060200190929190805190602001909291905050505050509150508091505090565b600860019054906101000a900473ffffffffffffffffffffffffffffffffffffffff1681565b60055481565b60095481565b60045481565b600360159054906101000a900460ff1681565b600360149054906101000a900460ff1681565b600260009054906101000a900473ffffffffffffffffffffffffffffffffffffffff1681565b60065481565b600160009054906101000a900473ffffffffffffffffffffffffffffffffffffffff1681565b600860009054906101000a900460ff1681565b600860009054906101000a900460ff161580156108c95750600073ffffffffffffffffffffffffffffffffffffffff16600360009054906101000a900473ffffffffffffffffffffffffffffffffffffffff1673ffffffffffffffffffffffffffffffffffffffff16145b80156109235750600260009054906101000a900473ffffffffffffffffffffffffffffffffffffffff1673ffffffffffffffffffffffffffffffffffffffff163373ffffffffffffffffffffffffffffffffffffffff1614155b61092c57600080fd5b33600360006101000a81548173ffffffffffffffffffffffffffffffffffffffff021916908373ffffffffffffffffffffffffffffffffffffffff1602179055506001600360156101000a81548160ff0219169083151502179055503460058190555080600781905550600360149054906101000a900460ff1680156109be5750600360159054906101000a900460ff165b15610a51576109cb6106c1565b600a819055506109e0600754600a5403610a54565b6109ef600654600a5403610a54565b13610a2457610a1f600260009054906101000a900473ffffffffffffffffffffffffffffffffffffffff16610a70565b610a50565b610a4f600360009054906101000a900473ffffffffffffffffffffffffffffffffffffffff16610a70565b5b5b50565b600080821215610a675781600003610a69565b815b9050919050565b6001600860006101000a81548160ff02191690831515021790555080600860016101000a81548173ffffffffffffffffffffffffffffffffffffffff021916908373ffffffffffffffffffffffffffffffffffffffff160217905550600554600454016009819055507fb92c2b787ad77de767427bc06dcf1d73bff20efa895eb4f5b114faa162d48db881600954604051808373ffffffffffffffffffffffffffffffffffffffff1673ffffffffffffffffffffffffffffffffffffffff1681526020018281526020019250505060405180910390a15056fea2646970667358221220cf8a2b813c517e5dd5a9110d3563cf6101245104efe191fecd0547fc627a4c2064736f6c63430006060033",
  "immutableReferences": {},
  "source": "pragma solidity ^0.6.6;\n\nimport \"@chainlink/contracts/src/v0.6/interfaces/AggregatorV3Interface.sol\";\n\ncontract BetContract {\n\n    AggregatorV3Interface internal priceFeed;\n    address public priceFeedAddress;\n\n    /**\n    * Our Bettor\n    */\n\taddress public player1;\n\taddress public player2;\n\n\tbool public player1Played;\n\tbool public player2Played;\n\n\tuint public player1Deposit;\n\tuint public player2Deposit;\n\n    int public player1PricePrediction;\n    int public player2PricePrediction;\n\n\tbool public gameFinished;\n    address public theWinner;\n    uint public gains;\n\n    int public currentPriceFromChainLink;\n    \n    \n    /**\n    * The logs that will be emitted in every step of the contract's life cycle\n    */\n\tevent BetStartsEvent(address player1, address player2);\n\tevent EndOfRoundEvent(uint player1Deposit, uint player2Deposit);\n\tevent EndOfBetEvent(address winner, uint gains);\n\n    /**\n     * Network: Kovan\n     * Aggregator: LINK/USD\n     * Address: 0x396c5E36DD0a0F5a5D33dae44368D4193f69a1F0\n     https://docs.chain.link/docs/ethereum-addresses/\n     */\n    constructor() public {\n        player1 = msg.sender;\n    }\n\n    /**\n     * Returns the latest price\n     */\n    function getLatestPrice() public view returns (int) {\n        (\n            /* uint80 roundID */,\n            int price,\n            /* uint startedAt */,\n            /* uint timeStamp */,\n            /* uint80 answeredInRound */\n        ) = priceFeed.latestRoundData();\n        return price;\n    }\n\n    function createBet(address _priceFeed, int pricePrediction) public payable {\n       require(msg.sender == player1);\n\n       player1Played = true;\n       player1Deposit = msg.value;\n       player1PricePrediction = pricePrediction; \n\n       // Bet creator will decide which price the bet will be on\n       priceFeedAddress = _priceFeed;\n       priceFeed = AggregatorV3Interface(_priceFeed);\n    }\n\n    /**\n    * Every round a player can put a sum of ether, if one of the player put in twice or\n    * more the money (in total) than the other did, the first wins\n    */\n    function joinBet(int pricePrediction) public payable {\n    \trequire(!gameFinished && player2 == address(0) && msg.sender != player1);\n        \n        player2 = msg.sender;        \n        player2Played = true;\n    \tplayer2Deposit = msg.value;\n        player2PricePrediction = pricePrediction; \n\n    \tif(player1Played && player2Played) {\n            currentPriceFromChainLink = getLatestPrice();\n\n            //Check who is closest to the price and declare them the winner.            \n    \t\tif(abs(currentPriceFromChainLink - player1PricePrediction) <=\n             abs(currentPriceFromChainLink - player2PricePrediction)) {\n    \t\t\tendOfGame(player1);\n    \t\t} else {\n    \t\t\tendOfGame(player2);\n    \t\t}\n    \t}\n    }\n\n    function abs(int x) private pure returns (int) {\n        return x >= 0 ? x : -x;\n    }\n\n    function endOfRound() internal {\n    \tplayer1Played = false;\n    \tplayer2Played = false;\n\n    \temit EndOfRoundEvent(player1Deposit, player2Deposit);\n    }\n\n    function endOfGame(address winner) internal {\n        gameFinished = true;\n        theWinner = winner;\n\n        gains = player1Deposit + player2Deposit;\n        emit EndOfBetEvent(winner, gains);\n    }\n\n    /**\n    * The withdraw function, following the withdraw pattern shown and explained here:\n    * http://solidity.readthedocs.io/en/develop/common-patterns.html#withdrawal-from-contracts\n    */\n    function withdraw() public {\n        require(gameFinished && theWinner == msg.sender);\n\n        uint amount = gains;\n\n        // Clean out the current state\n        gains = 0;\n        player1Deposit = 0;\n        player2Deposit = 0;\n         \n        msg.sender.transfer(amount);\n    }\n}",
  "sourcePath": "/Volumes/Transcend/chain/chainlink_tutorial/bet-v1/contracts/BetContract.sol",
  "compiler": {
    "name": "solc",
    "version": "0.6.6+commit.6c089d02.Emscripten.clang"
  },
  "schemaVersion": "3.4.1",
  "updatedAt": "2021-06-07T00:58:56.501Z",
  "devdoc": {
    "methods": {}
  },
  "userdoc": {
    "methods": {
      "constructor": "Network: Kovan Aggregator: LINK/USD Address: 0x396c5E36DD0a0F5a5D33dae44368D4193f69a1F0 https://docs.chain.link/docs/ethereum-addresses/",
      "getLatestPrice()": {
        "notice": "Returns the latest price"
      },
      "joinBet(int256)": {
        "notice": "Every round a player can put a sum of ether, if one of the player put in twice or more the money (in total) than the other did, the first wins"
      },
      "withdraw()": {
        "notice": "The withdraw function, following the withdraw pattern shown and explained here: http://solidity.readthedocs.io/en/develop/common-patterns.html#withdrawal-from-contracts"
      }
    }
  }
}