{
  "contractName": "BettingWithoutChainLink",
  "abi": [
    {
      "inputs": [
        {
          "internalType": "string",
          "name": "ownerName",
          "type": "string"
        }
      ],
      "stateMutability": "nonpayable",
      "type": "constructor"
    },
    {
      "inputs": [],
      "name": "GetBettingOwner",
      "outputs": [
        {
          "internalType": "string",
          "name": "",
          "type": "string"
        }
      ],
      "stateMutability": "view",
      "type": "function"
    },
    {
      "inputs": [
        {
          "components": [
            {
              "internalType": "bool",
              "name": "isValid",
              "type": "bool"
            },
            {
              "internalType": "uint256",
              "name": "bettingEventId",
              "type": "uint256"
            },
            {
              "internalType": "string",
              "name": "bettingEventDescription",
              "type": "string"
            },
            {
              "internalType": "string[]",
              "name": "bettingEventScenarios",
              "type": "string[]"
            },
            {
              "internalType": "uint256",
              "name": "maxBettingValue",
              "type": "uint256"
            },
            {
              "internalType": "uint256",
              "name": "bettingEventValidity",
              "type": "uint256"
            }
          ],
          "internalType": "struct BettingWithoutChainLink.BettingEvent[]",
          "name": "bettingEvents",
          "type": "tuple[]"
        }
      ],
      "name": "InitializeBettingEvents",
      "outputs": [],
      "stateMutability": "nonpayable",
      "type": "function"
    },
    {
      "inputs": [],
      "name": "GetAllBettingEvents",
      "outputs": [
        {
          "components": [
            {
              "internalType": "bool",
              "name": "isValid",
              "type": "bool"
            },
            {
              "internalType": "uint256",
              "name": "bettingEventId",
              "type": "uint256"
            },
            {
              "internalType": "string",
              "name": "bettingEventDescription",
              "type": "string"
            },
            {
              "internalType": "string[]",
              "name": "bettingEventScenarios",
              "type": "string[]"
            },
            {
              "internalType": "uint256",
              "name": "maxBettingValue",
              "type": "uint256"
            },
            {
              "internalType": "uint256",
              "name": "bettingEventValidity",
              "type": "uint256"
            }
          ],
          "internalType": "struct BettingWithoutChainLink.BettingEvent[]",
          "name": "",
          "type": "tuple[]"
        }
      ],
      "stateMutability": "view",
      "type": "function"
    },
    {
      "inputs": [
        {
          "internalType": "uint256",
          "name": "bettingEventId",
          "type": "uint256"
        },
        {
          "internalType": "int256",
          "name": "bettingEventScenario",
          "type": "int256"
        },
        {
          "internalType": "uint256",
          "name": "bettingAmount",
          "type": "uint256"
        }
      ],
      "name": "MakeBet",
      "outputs": [
        {
          "internalType": "uint256",
          "name": "",
          "type": "uint256"
        }
      ],
      "stateMutability": "payable",
      "type": "function"
    },
    {
      "inputs": [
        {
          "internalType": "int256",
          "name": "bettingEventScenario",
          "type": "int256"
        },
        {
          "internalType": "uint256",
          "name": "bettingAmount",
          "type": "uint256"
        },
        {
          "internalType": "address",
          "name": "instantBetResultAggrAddress",
          "type": "address"
        }
      ],
      "name": "MakeInstantBet",
      "outputs": [
        {
          "internalType": "uint256",
          "name": "",
          "type": "uint256"
        }
      ],
      "stateMutability": "payable",
      "type": "function"
    },
    {
      "inputs": [
        {
          "internalType": "uint256",
          "name": "bettingPairId",
          "type": "uint256"
        },
        {
          "internalType": "uint256",
          "name": "bettingEventId",
          "type": "uint256"
        },
        {
          "internalType": "int256",
          "name": "bettingEventScenario",
          "type": "int256"
        },
        {
          "internalType": "uint256",
          "name": "bettingAmount",
          "type": "uint256"
        }
      ],
      "name": "MakeCounterBet",
      "outputs": [],
      "stateMutability": "payable",
      "type": "function"
    },
    {
      "inputs": [
        {
          "internalType": "uint256",
          "name": "bettingPairId",
          "type": "uint256"
        },
        {
          "internalType": "int256",
          "name": "bettingEventScenario",
          "type": "int256"
        },
        {
          "internalType": "uint256",
          "name": "bettingAmount",
          "type": "uint256"
        }
      ],
      "name": "MakeInstantCounterBet",
      "outputs": [],
      "stateMutability": "payable",
      "type": "function"
    },
    {
      "inputs": [],
      "name": "GetAllBets",
      "outputs": [
        {
          "components": [
            {
              "internalType": "bool",
              "name": "isInstantBet",
              "type": "bool"
            },
            {
              "internalType": "uint256",
              "name": "bettingEventId",
              "type": "uint256"
            },
            {
              "internalType": "uint256",
              "name": "bettingPairId",
              "type": "uint256"
            },
            {
              "internalType": "uint256",
              "name": "bettingAmount",
              "type": "uint256"
            },
            {
              "internalType": "address payable[2]",
              "name": "bettingPlayers",
              "type": "address[2]"
            },
            {
              "internalType": "int256[2]",
              "name": "bettingPlayersChoices",
              "type": "int256[2]"
            },
            {
              "internalType": "contract AggregatorV3Interface",
              "name": "externalOracle",
              "type": "address"
            }
          ],
          "internalType": "struct BettingWithoutChainLink.BettingPair[]",
          "name": "",
          "type": "tuple[]"
        }
      ],
      "stateMutability": "view",
      "type": "function"
    },
    {
      "inputs": [],
      "name": "GetAllInstantBets",
      "outputs": [
        {
          "components": [
            {
              "internalType": "bool",
              "name": "isInstantBet",
              "type": "bool"
            },
            {
              "internalType": "uint256",
              "name": "bettingEventId",
              "type": "uint256"
            },
            {
              "internalType": "uint256",
              "name": "bettingPairId",
              "type": "uint256"
            },
            {
              "internalType": "uint256",
              "name": "bettingAmount",
              "type": "uint256"
            },
            {
              "internalType": "address payable[2]",
              "name": "bettingPlayers",
              "type": "address[2]"
            },
            {
              "internalType": "int256[2]",
              "name": "bettingPlayersChoices",
              "type": "int256[2]"
            },
            {
              "internalType": "contract AggregatorV3Interface",
              "name": "externalOracle",
              "type": "address"
            }
          ],
          "internalType": "struct BettingWithoutChainLink.BettingPair[]",
          "name": "",
          "type": "tuple[]"
        }
      ],
      "stateMutability": "view",
      "type": "function"
    },
    {
      "inputs": [
        {
          "internalType": "uint256",
          "name": "bettingEventId",
          "type": "uint256"
        },
        {
          "internalType": "int256",
          "name": "winBettingEventScenario",
          "type": "int256"
        }
      ],
      "name": "EndBettingEvent",
      "outputs": [],
      "stateMutability": "nonpayable",
      "type": "function"
    }
  ],
  "bytecode": "0x60806040523480156200001157600080fd5b506040516200390e3803806200390e8339818101604052810190620000379190620001ea565b6000815114156200007f576040517f08c379a0000000000000000000000000000000000000000000000000000000008152600401620000769062000271565b60405180910390fd5b336000806101000a81548173ffffffffffffffffffffffffffffffffffffffff021916908373ffffffffffffffffffffffffffffffffffffffff1602179055508060019080519060200190620000d7929190620000df565b505062000335565b828054600181600116156101000203166002900490600052602060002090601f016020900481019282601f106200012257805160ff191683800117855562000153565b8280016001018555821562000153579182015b828111156200015257825182559160200191906001019062000135565b5b50905062000162919062000166565b5090565b6200018b91905b80821115620001875760008160009055506001016200016d565b5090565b90565b600082601f830112620001a057600080fd5b8151620001b7620001b182620002c1565b62000293565b91508082526020830160208301858383011115620001d457600080fd5b620001e1838284620002ff565b50505092915050565b600060208284031215620001fd57600080fd5b600082015167ffffffffffffffff8111156200021857600080fd5b62000226848285016200018e565b91505092915050565b60006200023e601c83620002ee565b91507f50726f7669646564206f776e6572206e616d6520697320656d707479000000006000830152602082019050919050565b600060208201905081810360008301526200028c816200022f565b9050919050565b6000604051905081810181811067ffffffffffffffff82111715620002b757600080fd5b8060405250919050565b600067ffffffffffffffff821115620002d957600080fd5b601f19601f8301169050602081019050919050565b600082825260208201905092915050565b60005b838110156200031f57808201518184015260208101905062000302565b838111156200032f576000848401525b50505050565b6135c980620003456000396000f3fe6080604052600436106100915760003560e01c8063a2224a6e11610059578063a2224a6e14610152578063e71a5e911461017d578063f33d16c2146101a6578063fab7bdc0146101d6578063fb484a671461020157610091565b806327a4f8331461009657806344d29557146100c15780635d1742ec146100f157806365547def1461011a5780636768a9e214610136575b600080fd5b3480156100a257600080fd5b506100ab61022c565b6040516100b89190613093565b60405180910390f35b6100db60048036038101906100d69190612702565b6104a7565b6040516100e89190613239565b60405180910390f35b3480156100fd57600080fd5b50610118600480360381019061011391906126c1565b610602565b005b610134600480360381019061012f919061278d565b61079f565b005b610150600480360381019061014b91906127dc565b610d3b565b005b34801561015e57600080fd5b506101676110d3565b60405161017491906130b5565b60405180910390f35b34801561018957600080fd5b506101a4600480360381019061019f9190612751565b611313565b005b6101c060048036038101906101bb919061278d565b611b12565b6040516101cd9190613239565b60405180910390f35b3480156101e257600080fd5b506101eb611d12565b6040516101f891906130d7565b60405180910390f35b34801561020d57600080fd5b50610216611db4565b60405161022391906130b5565b60405180910390f35b60608060025467ffffffffffffffff8111801561024857600080fd5b5060405190808252806020026020018201604052801561028257816020015b61026f612172565b8152602001906001900390816102675790505b5090506000809050600190505b600254811161049f57600360008281526020019081526020016000206040518060c00160405290816000820160009054906101000a900460ff1615151515815260200160018201548152602001600282018054600181600116156101000203166002900480601f0160208091040260200160405190810160405280929190818152602001828054600181600116156101000203166002900480156103745780601f1061034957610100808354040283529160200191610374565b820191906000526020600020905b81548152906001019060200180831161035757829003601f168201915b5050505050815260200160038201805480602002602001604051908101604052809291908181526020016000905b8282101561045e578382906000526020600020018054600181600116156101000203166002900480601f01602080910402602001604051908101604052809291908181526020018280546001816001161561010002031660029004801561044a5780601f1061041f5761010080835404028352916020019161044a565b820191906000526020600020905b81548152906001019060200180831161042d57829003601f168201915b5050505050815260200190600101906103a2565b5050505081526020016004820154815260200160058201548152505082600183038151811061048957fe5b602002602001018190525060018101905061028f565b819250505090565b60008234146104eb576040517f08c379a00000000000000000000000000000000000000000000000000000000081526004016104e2906131b9565b60405180910390fd5b60001515600460003373ffffffffffffffffffffffffffffffffffffffff1673ffffffffffffffffffffffffffffffffffffffff16815260200190815260200160002060009054906101000a900460ff1615151461057e576040517f08c379a0000000000000000000000000000000000000000000000000000000008152600401610575906130f9565b60405180910390fd5b600061058f33600160008789611fba565b9050826005600083815260200190815260200160002060080160006101000a81548173ffffffffffffffffffffffffffffffffffffffff021916908373ffffffffffffffffffffffffffffffffffffffff1602179055506001600760008282540192505081905550809150509392505050565b6000809054906101000a900473ffffffffffffffffffffffffffffffffffffffff1673ffffffffffffffffffffffffffffffffffffffff163373ffffffffffffffffffffffffffffffffffffffff1614610691576040517f08c379a000000000000000000000000000000000000000000000000000000000815260040161068890613179565b60405180910390fd5b6000600281905550600060068190555060006007819055506000809050600090505b815181101561079b5760016002600082825401925050819055508181815181106106d957fe5b602002602001015160036000600254815260200190815260200160002060008201518160000160006101000a81548160ff02191690831515021790555060208201518160010155604082015181600201908051906020019061073c9291906121aa565b50606082015181600301908051906020019061075992919061222a565b506080820151816004015560a08201518160050155905050600254600360006002548152602001908152602001600020600101819055506001810190506106b3565b5050565b8034146107e1576040517f08c379a00000000000000000000000000000000000000000000000000000000081526004016107d8906131b9565b60405180910390fd5b600060056000858152602001908152602001600020600301541161083a576040517f08c379a000000000000000000000000000000000000000000000000000000000815260040161083190613159565b60405180910390fd5b80600560008581526020019081526020016000206003015414610892576040517f08c379a000000000000000000000000000000000000000000000000000000000815260040161088990613119565b60405180910390fd5b60001515600460003373ffffffffffffffffffffffffffffffffffffffff1673ffffffffffffffffffffffffffffffffffffffff16815260200190815260200160002060009054906101000a900460ff16151514610925576040517f08c379a000000000000000000000000000000000000000000000000000000000815260040161091c906130f9565b60405180910390fd5b60006005600085815260200190815260200160002060080160009054906101000a900473ffffffffffffffffffffffffffffffffffffffff1673ffffffffffffffffffffffffffffffffffffffff1663feaf968c6040518163ffffffff1660e01b815260040160a06040518083038186803b1580156109a357600080fd5b505afa1580156109b7573d6000803e3d6000fd5b505050506040513d601f19601f820116820180604052508101906109db919061283f565b5050509150506000610a1060056000878152602001908152602001600020600601600060028110610a0857fe5b01548361214a565b90506000610a1e858461214a565b905080821215610aba5760056000878152602001908152602001600020600401600060028110610a4a57fe5b0160009054906101000a900473ffffffffffffffffffffffffffffffffffffffff1673ffffffffffffffffffffffffffffffffffffffff166108fc856002029081150290604051600060405180830381858888f19350505050158015610ab4573d6000803e3d6000fd5b50610bfe565b81811215610b11573373ffffffffffffffffffffffffffffffffffffffff166108fc856002029081150290604051600060405180830381858888f19350505050158015610b0b573d6000803e3d6000fd5b50610bfd565b8082148015610b205750600081145b15610bfb5760056000878152602001908152602001600020600401600060028110610b4757fe5b0160009054906101000a900473ffffffffffffffffffffffffffffffffffffffff1673ffffffffffffffffffffffffffffffffffffffff166108fc859081150290604051600060405180830381858888f19350505050158015610bae573d6000803e3d6000fd5b503373ffffffffffffffffffffffffffffffffffffffff166108fc859081150290604051600060405180830381858888f19350505050158015610bf5573d6000803e3d6000fd5b50610bfc565b5b5b5b6001600760008282540392505081905550600060046000600560008a8152602001908152602001600020600401600060028110610c3757fe5b0160009054906101000a900473ffffffffffffffffffffffffffffffffffffffff1673ffffffffffffffffffffffffffffffffffffffff1673ffffffffffffffffffffffffffffffffffffffff16815260200190815260200160002060006101000a81548160ff02191690831515021790555060056000878152602001908152602001600020600080820160006101000a81549060ff0219169055600182016000905560028201600090556003820160009055600482016000610cfa919061228a565b600682016000610d0a9190612298565b6008820160006101000a81549073ffffffffffffffffffffffffffffffffffffffff02191690555050505050505050565b803414610d7d576040517f08c379a0000000000000000000000000000000000000000000000000000000008152600401610d74906131b9565b60405180910390fd5b6000600560008681526020019081526020016000206003015411610dd6576040517f08c379a0000000000000000000000000000000000000000000000000000000008152600401610dcd90613159565b60405180910390fd5b80600560008681526020019081526020016000206003015414610e2e576040517f08c379a0000000000000000000000000000000000000000000000000000000008152600401610e2590613119565b60405180910390fd5b82600560008681526020019081526020016000206001015414610e86576040517f08c379a0000000000000000000000000000000000000000000000000000000008152600401610e7d90613199565b60405180910390fd5b816003600085815260200190815260200160002060030180549050138015610eaf575060008212155b610eee576040517f08c379a0000000000000000000000000000000000000000000000000000000008152600401610ee590613219565b60405180910390fd5b60001515600460003373ffffffffffffffffffffffffffffffffffffffff1673ffffffffffffffffffffffffffffffffffffffff16815260200190815260200160002060009054906101000a900460ff16151514610f81576040517f08c379a0000000000000000000000000000000000000000000000000000000008152600401610f78906130f9565b60405180910390fd5b8160056000868152602001908152602001600020600601600060028110610fa457fe5b01541415610fe7576040517f08c379a0000000000000000000000000000000000000000000000000000000008152600401610fde906131f9565b60405180910390fd5b6001600460003373ffffffffffffffffffffffffffffffffffffffff1673ffffffffffffffffffffffffffffffffffffffff16815260200190815260200160002060006101000a81548160ff0219169083151502179055503360056000600654815260200190815260200160002060040160016002811061106457fe5b0160006101000a81548173ffffffffffffffffffffffffffffffffffffffff021916908373ffffffffffffffffffffffffffffffffffffffff160217905550816005600060065481526020019081526020016000206006016001600281106110c857fe5b018190555050505050565b60608060075467ffffffffffffffff811180156110ef57600080fd5b5060405190808252806020026020018201604052801561112957816020015b6111166122a6565b81526020019060019003908161110e5790505b50905060008090506000809050600191505b600654821161130a57600115156005600084815260200190815260200160002060000160009054906101000a900460ff16151514156112ff57600560008381526020019081526020016000206040518060e00160405290816000820160009054906101000a900460ff161515151581526020016001820154815260200160028201548152602001600382015481526020016004820160028060200260405190810160405280929190826002801561123d576020028201915b8160009054906101000a900473ffffffffffffffffffffffffffffffffffffffff1673ffffffffffffffffffffffffffffffffffffffff16815260200190600101908083116111f3575b5050505050815260200160068201600280602002604051908101604052809291908260028015611282576020028201915b81548152602001906001019080831161126e575b505050505081526020016008820160009054906101000a900473ffffffffffffffffffffffffffffffffffffffff1673ffffffffffffffffffffffffffffffffffffffff1673ffffffffffffffffffffffffffffffffffffffff16815250508382815181106112ed57fe5b60200260200101819052506001810190505b60018201915061113b565b82935050505090565b6000809054906101000a900473ffffffffffffffffffffffffffffffffffffffff1673ffffffffffffffffffffffffffffffffffffffff163373ffffffffffffffffffffffffffffffffffffffff16146113a2576040517f08c379a0000000000000000000000000000000000000000000000000000000008152600401611399906131d9565b60405180910390fd5b600115156003600084815260200190815260200160002060000160009054906101000a900460ff1615151461140c576040517f08c379a000000000000000000000000000000000000000000000000000000000815260040161140390613199565b60405180910390fd5b806003600084815260200190815260200160002060030180549050138015611435575060008112155b611474576040517f08c379a000000000000000000000000000000000000000000000000000000000815260040161146b90613219565b60405180910390fd5b60006008600084815260200190815260200160002080549050116114cd576040517f08c379a00000000000000000000000000000000000000000000000000000000081526004016114c490613139565b60405180910390fd5b6000809050600090505b60086000848152602001908152602001600020805490508163ffffffff161015611a8c576115036122a6565b60056000600860008781526020019081526020016000208463ffffffff168154811061152b57fe5b906000526020600020015481526020019081526020016000206040518060e00160405290816000820160009054906101000a900460ff16151515158152602001600182015481526020016002820154815260200160038201548152602001600482016002806020026040519081016040528092919082600280156115fa576020028201915b8160009054906101000a900473ffffffffffffffffffffffffffffffffffffffff1673ffffffffffffffffffffffffffffffffffffffff16815260200190600101908083116115b0575b505050505081526020016006820160028060200260405190810160405280929190826002801561163f576020028201915b81548152602001906001019080831161162b575b505050505081526020016008820160009054906101000a900473ffffffffffffffffffffffffffffffffffffffff1673ffffffffffffffffffffffffffffffffffffffff1673ffffffffffffffffffffffffffffffffffffffff16815250509050828160a001516000600281106116b257fe5b602002015114156117f957600115156004600083608001516001600281106116d657fe5b602002015173ffffffffffffffffffffffffffffffffffffffff1673ffffffffffffffffffffffffffffffffffffffff16815260200190815260200160002060009054906101000a900460ff161515141561179357806080015160006002811061173c57fe5b602002015173ffffffffffffffffffffffffffffffffffffffff166108fc82606001516002029081150290604051600060405180830381858888f1935050505015801561178d573d6000803e3d6000fd5b506117f4565b80608001516000600281106117a457fe5b602002015173ffffffffffffffffffffffffffffffffffffffff166108fc82606001519081150290604051600060405180830381858888f193505050501580156117f2573d6000803e3d6000fd5b505b6118ef565b828160a0015160016002811061180b57fe5b602002015114156118ed576001151560046000836080015160016002811061182f57fe5b602002015173ffffffffffffffffffffffffffffffffffffffff1673ffffffffffffffffffffffffffffffffffffffff16815260200190815260200160002060009054906101000a900460ff16151514156118e857806080015160016002811061189557fe5b602002015173ffffffffffffffffffffffffffffffffffffffff166108fc82606001516002029081150290604051600060405180830381858888f193505050501580156118e6573d6000803e3d6000fd5b505b6118ee565b5b5b600060046000836080015160006002811061190657fe5b602002015173ffffffffffffffffffffffffffffffffffffffff1673ffffffffffffffffffffffffffffffffffffffff16815260200190815260200160002060006101000a81548160ff021916908315150217905550600060046000836080015160016002811061197357fe5b602002015173ffffffffffffffffffffffffffffffffffffffff1673ffffffffffffffffffffffffffffffffffffffff16815260200190815260200160002060006101000a81548160ff02191690831515021790555060056000600860008781526020019081526020016000208463ffffffff16815481106119f157fe5b90600052602060002001548152602001908152602001600020600080820160006101000a81549060ff0219169055600182016000905560028201600090556003820160009055600482016000611a47919061228a565b600682016000611a579190612298565b6008820160006101000a81549073ffffffffffffffffffffffffffffffffffffffff02191690555050506001810190506114d7565b600860008481526020019081526020016000206000611aab9190612307565b60036000848152602001908152602001600020600080820160006101000a81549060ff02191690556001820160009055600282016000611aeb9190612328565b600382016000611afb9190612370565b600482016000905560058201600090555050505050565b6000813414611b56576040517f08c379a0000000000000000000000000000000000000000000000000000000008152600401611b4d906131b9565b60405180910390fd5b600115156003600086815260200190815260200160002060000160009054906101000a900460ff16151514611bc0576040517f08c379a0000000000000000000000000000000000000000000000000000000008152600401611bb790613199565b60405180910390fd5b826003600086815260200190815260200160002060030180549050138015611be9575060008312155b611c28576040517f08c379a0000000000000000000000000000000000000000000000000000000008152600401611c1f90613219565b60405180910390fd5b60001515600460003373ffffffffffffffffffffffffffffffffffffffff1673ffffffffffffffffffffffffffffffffffffffff16815260200190815260200160002060009054906101000a900460ff16151514611cbb576040517f08c379a0000000000000000000000000000000000000000000000000000000008152600401611cb2906130f9565b60405180910390fd5b6000611ccb336000878688611fba565b905060086000868152602001908152602001600020819080600181540180825580915050600190039060005260206000200160009091909190915055809150509392505050565b606060018054600181600116156101000203166002900480601f016020809104026020016040519081016040528092919081815260200182805460018160011615610100020316600290048015611daa5780601f10611d7f57610100808354040283529160200191611daa565b820191906000526020600020905b815481529060010190602001808311611d8d57829003601f168201915b5050505050905090565b60608060065467ffffffffffffffff81118015611dd057600080fd5b50604051908082528060200260200182016040528015611e0a57816020015b611df76122a6565b815260200190600190039081611def5790505b5090506000809050600190505b6006548111611fb257600560008281526020019081526020016000206040518060e00160405290816000820160009054906101000a900460ff1615151515815260200160018201548152602001600282015481526020016003820154815260200160048201600280602002604051908101604052809291908260028015611ee9576020028201915b8160009054906101000a900473ffffffffffffffffffffffffffffffffffffffff1673ffffffffffffffffffffffffffffffffffffffff1681526020019060010190808311611e9f575b5050505050815260200160068201600280602002604051908101604052809291908260028015611f2e576020028201915b815481526020019060010190808311611f1a575b505050505081526020016008820160009054906101000a900473ffffffffffffffffffffffffffffffffffffffff1673ffffffffffffffffffffffffffffffffffffffff1673ffffffffffffffffffffffffffffffffffffffff1681525050826001830381518110611f9c57fe5b6020026020010181905250600181019050611e17565b819250505090565b60006001600460008873ffffffffffffffffffffffffffffffffffffffff1673ffffffffffffffffffffffffffffffffffffffff16815260200190815260200160002060006101000a81548160ff02191690831515021790555060016006600082825401925050819055508460056000600654815260200190815260200160002060000160006101000a81548160ff0219169083151502179055506006546005600060065481526020019081526020016000206002018190555083600560006006548152602001908152602001600020600101819055508260056000600654815260200190815260200160002060030181905550856005600060065481526020019081526020016000206004016000600281106120d357fe5b0160006101000a81548173ffffffffffffffffffffffffffffffffffffffff021916908373ffffffffffffffffffffffffffffffffffffffff1602179055508160056000600654815260200190815260200160002060060160006002811061213757fe5b0181905550600654905095945050505050565b60008060009050828412612162578284039050612168565b83830390505b8091505092915050565b6040518060c0016040528060001515815260200160008152602001606081526020016060815260200160008152602001600081525090565b828054600181600116156101000203166002900490600052602060002090601f016020900481019282601f106121eb57805160ff1916838001178555612219565b82800160010185558215612219579182015b828111156122185782518255916020019190600101906121fd565b5b5090506122269190612391565b5090565b828054828255906000526020600020908101928215612279579160200282015b828111156122785782518290805190602001906122689291906121aa565b509160200191906001019061224a565b5b50905061228691906123b6565b5090565b506000815560010160009055565b506000815560010160009055565b6040518060e001604052806000151581526020016000815260200160008152602001600081526020016122d76123e2565b81526020016122e4612404565b8152602001600073ffffffffffffffffffffffffffffffffffffffff1681525090565b50805460008255906000526020600020908101906123259190612391565b50565b50805460018160011615610100020316600290046000825580601f1061234e575061236d565b601f01602090049060005260206000209081019061236c9190612391565b5b50565b508054600082559060005260206000209081019061238e91906123b6565b50565b6123b391905b808211156123af576000816000905550600101612397565b5090565b90565b6123df91905b808211156123db57600081816123d29190612328565b506001016123bc565b5090565b90565b6040518060400160405280600290602082028036833780820191505090505090565b6040518060400160405280600290602082028036833780820191505090505090565b60008135905061243581613520565b92915050565b600082601f83011261244c57600080fd5b813561245f61245a82613281565b613254565b9150818183526020840193506020810190508360005b838110156124a5578135860161248b8882612562565b845260208401935060208301925050600181019050612475565b5050505092915050565b600082601f8301126124c057600080fd5b81356124d36124ce826132a9565b613254565b9150818183526020840193506020810190508360005b8381101561251957813586016124ff88826125b6565b8452602084019350602083019250506001810190506124e9565b5050505092915050565b60008135905061253281613537565b92915050565b6000813590506125478161354e565b92915050565b60008151905061255c8161354e565b92915050565b600082601f83011261257357600080fd5b8135612586612581826132d1565b613254565b915080825260208301602083018583830111156125a257600080fd5b6125ad8382846134cd565b50505092915050565b600060c082840312156125c857600080fd5b6125d260c0613254565b905060006125e284828501612523565b60008301525060206125f684828501612682565b602083015250604082013567ffffffffffffffff81111561261657600080fd5b61262284828501612562565b604083015250606082013567ffffffffffffffff81111561264257600080fd5b61264e8482850161243b565b606083015250608061266284828501612682565b60808301525060a061267684828501612682565b60a08301525092915050565b60008135905061269181613565565b92915050565b6000815190506126a681613565565b92915050565b6000815190506126bb8161357c565b92915050565b6000602082840312156126d357600080fd5b600082013567ffffffffffffffff8111156126ed57600080fd5b6126f9848285016124af565b91505092915050565b60008060006060848603121561271757600080fd5b600061272586828701612538565b935050602061273686828701612682565b925050604061274786828701612426565b9150509250925092565b6000806040838503121561276457600080fd5b600061277285828601612682565b925050602061278385828601612538565b9150509250929050565b6000806000606084860312156127a257600080fd5b60006127b086828701612682565b93505060206127c186828701612538565b92505060406127d286828701612682565b9150509250925092565b600080600080608085870312156127f257600080fd5b600061280087828801612682565b945050602061281187828801612682565b935050604061282287828801612538565b925050606061283387828801612682565b91505092959194509250565b600080600080600060a0868803121561285757600080fd5b6000612865888289016126ac565b95505060206128768882890161254d565b945050604061288788828901612697565b935050606061289888828901612697565b92505060806128a9888289016126ac565b9150509295509295909350565b60006128c28383612927565b60208301905092915050565b60006128da8383612b4a565b60208301905092915050565b60006128f28383612b59565b905092915050565b60006129068383612f55565b905092915050565b600061291a8383612fe5565b6101208301905092915050565b61293081613441565b82525050565b61293f81613341565b61294981846133c4565b9250612954826132fd565b8060005b8381101561298557815161296c87826128b6565b965061297783613383565b925050600181019050612958565b505050505050565b6129968161334c565b6129a081846133cf565b92506129ab82613307565b8060005b838110156129dc5781516129c387826128ce565b96506129ce83613390565b9250506001810190506129af565b505050505050565b60006129ef82613357565b6129f981856133da565b935083602082028501612a0b85613311565b8060005b85811015612a475784840389528151612a2885826128e6565b9450612a338361339d565b925060208a01995050600181019050612a0f565b50829750879550505050505092915050565b6000612a6482613362565b612a6e81856133eb565b935083602082028501612a8085613321565b8060005b85811015612abc5784840389528151612a9d85826128fa565b9450612aa8836133aa565b925060208a01995050600181019050612a84565b50829750879550505050505092915050565b6000612ad98261336d565b612ae381856133fc565b9350612aee83613331565b8060005b83811015612b1f578151612b06888261290e565b9750612b11836133b7565b925050600181019050612af2565b5085935050505092915050565b612b3581613453565b82525050565b612b44816134a9565b82525050565b612b538161345f565b82525050565b6000612b6482613378565b612b6e818561340d565b9350612b7e8185602086016134dc565b612b878161350f565b840191505092915050565b6000612b9d82613378565b612ba7818561341e565b9350612bb78185602086016134dc565b612bc08161350f565b840191505092915050565b6000612bd8601a8361341e565b91507f506c6179657220616c726561647920726567697374657265642e0000000000006000830152602082019050919050565b6000612c1860468361341e565b91507f42657474696e6720616d6f756e742070616964206973206e6f7420657175616c60008301527f20746f20616d6f756e7420666f7220776869636820746865206265742077617360208301527f206d6164652e00000000000000000000000000000000000000000000000000006040830152606082019050919050565b6000612ca460228361341e565b91507f4e6f2062657473206d61646520666f722062657474696e67206576656e74206960008301527f642e0000000000000000000000000000000000000000000000000000000000006020830152604082019050919050565b6000612d0a601b8361341e565b91507f42657474696e67207061697220496420697320696e76616c69642e00000000006000830152602082019050919050565b6000612d4a60298361341e565b91507f4f6e6c79206f776e65722063616e20696e697469616c697a652062657474696e60008301527f67206576656e74732e00000000000000000000000000000000000000000000006020830152604082019050919050565b6000612db0601c8361341e565b91507f42657474696e67206576656e7420496420697320696e76616c69642e000000006000830152602082019050919050565b6000612df060258361341e565b91507f56616c7565206973206e6f7420657175616c20746f2062657474696e6720616d60008301527f6f756e742e0000000000000000000000000000000000000000000000000000006020830152604082019050919050565b6000612e5660228361341e565b91507f4f6e6c79206f776e65722063616e20656e642062657474696e67206576656e7460008301527f732e0000000000000000000000000000000000000000000000000000000000006020830152604082019050919050565b6000612ebc60238361341e565b91507f42657420616c7265616479206d61646520666f722074686973207363656e617260008301527f696f2e00000000000000000000000000000000000000000000000000000000006020830152604082019050919050565b6000612f2260178361341e565b91507f4576656e74207363656e6172696f20696e76616c69642e0000000000000000006000830152602082019050919050565b600060c083016000830151612f6d6000860182612b2c565b506020830151612f806020860182613075565b5060408301518482036040860152612f988282612b59565b91505060608301518482036060860152612fb282826129e4565b9150506080830151612fc76080860182613075565b5060a0830151612fda60a0860182613075565b508091505092915050565b61012082016000820151612ffc6000850182612b2c565b50602082015161300f6020850182613075565b5060408201516130226040850182613075565b5060608201516130356060850182613075565b5060808201516130486080850182612936565b5060a082015161305b60c085018261298d565b5060c082015161306f610100850182612b3b565b50505050565b61307e81613489565b82525050565b61308d81613489565b82525050565b600060208201905081810360008301526130ad8184612a59565b905092915050565b600060208201905081810360008301526130cf8184612ace565b905092915050565b600060208201905081810360008301526130f18184612b92565b905092915050565b6000602082019050818103600083015261311281612bcb565b9050919050565b6000602082019050818103600083015261313281612c0b565b9050919050565b6000602082019050818103600083015261315281612c97565b9050919050565b6000602082019050818103600083015261317281612cfd565b9050919050565b6000602082019050818103600083015261319281612d3d565b9050919050565b600060208201905081810360008301526131b281612da3565b9050919050565b600060208201905081810360008301526131d281612de3565b9050919050565b600060208201905081810360008301526131f281612e49565b9050919050565b6000602082019050818103600083015261321281612eaf565b9050919050565b6000602082019050818103600083015261323281612f15565b9050919050565b600060208201905061324e6000830184613084565b92915050565b6000604051905081810181811067ffffffffffffffff8211171561327757600080fd5b8060405250919050565b600067ffffffffffffffff82111561329857600080fd5b602082029050602081019050919050565b600067ffffffffffffffff8211156132c057600080fd5b602082029050602081019050919050565b600067ffffffffffffffff8211156132e857600080fd5b601f19601f8301169050602081019050919050565b6000819050919050565b6000819050919050565b6000819050602082019050919050565b6000819050602082019050919050565b6000819050602082019050919050565b600060029050919050565b600060029050919050565b600081519050919050565b600081519050919050565b600081519050919050565b600081519050919050565b6000602082019050919050565b6000602082019050919050565b6000602082019050919050565b6000602082019050919050565b6000602082019050919050565b600081905092915050565b600081905092915050565b600082825260208201905092915050565b600082825260208201905092915050565b600082825260208201905092915050565b600082825260208201905092915050565b600082825260208201905092915050565b600061343a82613469565b9050919050565b600061344c82613469565b9050919050565b60008115159050919050565b6000819050919050565b600073ffffffffffffffffffffffffffffffffffffffff82169050919050565b6000819050919050565b600069ffffffffffffffffffff82169050919050565b60006134b4826134bb565b9050919050565b60006134c682613469565b9050919050565b82818337600083830152505050565b60005b838110156134fa5780820151818401526020810190506134df565b83811115613509576000848401525b50505050565b6000601f19601f8301169050919050565b6135298161342f565b811461353457600080fd5b50565b61354081613453565b811461354b57600080fd5b50565b6135578161345f565b811461356257600080fd5b50565b61356e81613489565b811461357957600080fd5b50565b61358581613493565b811461359057600080fd5b5056fea2646970667358221220f8bbb7618da590eff2dc3fe87f84d2461a6cf5ca63eaae6f1f74693a10fc1a0164736f6c63430006060033",
  "immutableReferences": {},
  "source": "// SPDX-License-Identifier: GPL-3.0\n\npragma solidity >=0.6.1 <0.9.0;\npragma experimental ABIEncoderV2;\n\nimport \"@chainlink/contracts/src/v0.6/interfaces/AggregatorV3Interface.sol\";\n\ncontract BettingWithoutChainLink{\n\n    address private _owner;\n    string private _ownerName;\n\n    struct BettingEvent\n    {\n        bool isValid; /*To check if the struct was exlicitly created in the mapping.*/\n        uint256 bettingEventId; /*Monotonically increasing Id within the smart contract.*/\n        string bettingEventDescription;\n        string[] bettingEventScenarios; /*All possbile scenarios on which a bet can be made. Array index used for referring.*/\n        uint256 maxBettingValue; /*Ceiling on betting amount.*/\n        uint256 bettingEventValidity; /*Time frame during which the bet is valid. Not used now.*/\n    }\n    uint256 private _bettingEventIdCounter;\n    mapping(uint256 => BettingEvent) private _bettingEventMap; /*Contains all the betting events that users can try.*/\n    \n    mapping (address => bool) private _bettingPlayerInGame; /* Used to ensure a bet can be made only once from an address*/\n    struct BettingPair\n    {\n        bool isInstantBet; /*To denote that this bet ends the moment a counter bet is made.*/\n        uint256 bettingEventId;\n        uint256 bettingPairId; /*Monotonically increasing Id within the smart contract.*/\n        uint256 bettingAmount;\n        address payable[2] bettingPlayers; /*Index 0 and 1 are players 1 and 2 repectively.*/\n        int256[2] bettingPlayersChoices; /*The index value of scenario in BettingEvent.bettingEventScenarios for each player.*/\n        AggregatorV3Interface externalOracle; /*Used for chainlink queries.*/\n    }\n    mapping (uint256 => BettingPair) private _bettingPairIdToPlayersPairMap; /*All bets across all betting events.*/\n    uint256 private _bettingPairIdCounter;\n    uint256 private _instantBettingPairs; /*Count of all instant bets.*/\n    \n    mapping(uint256 => uint256[]) private _bettingEventIdToPairIdMap; /*List of bets made for each betting event.*/\n    \n    constructor(string memory ownerName) public\n    {\n        require(bytes(ownerName).length != 0, \"Provided owner name is empty\");\n        \n        _owner = msg.sender;\n        _ownerName = ownerName;\n    }\n    \n    function GetBettingOwner() public view returns(string memory)\n    {\n        return _ownerName;\n    }\n    \n    /*\n    * @Param: bettingEvents -> array of all betting events (struct BettingEvent).\n    * eg:\n    * [\n    *  [true, 0, \"Liverpool vs Manchester\", [\"Liverpool wins\", \"Manchester wins\", \"Draw match\"], 1234, 5000], \n    *  [true, 0, \"Chelsea vs Arsenal\", [\"Chelsea wins\", \"Arsenal wins\", \"Draw match\"], 5678, 9000]\n    * ]\n    */\n    function InitializeBettingEvents(BettingEvent[] memory bettingEvents) public\n    {\n        require(msg.sender == _owner, \"Only owner can initialize betting events.\");\n        _bettingEventIdCounter = 0;\n        _bettingPairIdCounter = 0;\n        _instantBettingPairs = 0;\n        \n        /* Manually fill the data, ideally it should come from chainlink*/\n        uint256 i = 0;\n        for( i = 0; i < bettingEvents.length; i+=1)\n        {\n            _bettingEventIdCounter += 1;\n            _bettingEventMap[_bettingEventIdCounter] = bettingEvents[i];\n            _bettingEventMap[_bettingEventIdCounter].bettingEventId = _bettingEventIdCounter;\n        }\n    }\n    \n    function GetAllBettingEvents() public view returns (BettingEvent[] memory)\n    {\n        BettingEvent[] memory bettingEventsArray = new BettingEvent[](_bettingEventIdCounter);\n        \n        uint256 i = 0;\n        for(i = 1; i <= _bettingEventIdCounter; i+=1)\n        {\n            bettingEventsArray[i - 1] = _bettingEventMap[i];\n        }\n        \n        return bettingEventsArray;\n    }\n    \n    /*\n    * @Param: bettingEventId -> event Id as obtained from call to GetAllBettingEvents.\n    * @Param: bettingEventScenario -> index of scenario in BettingEvent.bettingEventScenario, again obtained from GetAllBettingEvents.\n    * @Param: bettingAmount -> to ensure ether transacted while invoking contract is as expected.\n    */\n    function MakeBet(uint256 bettingEventId, int256 bettingEventScenario, uint256 bettingAmount) public payable returns (uint256)\n    {\n        require(msg.value == bettingAmount, \"Value is not equal to betting amount.\");\n        require(_bettingEventMap[bettingEventId].isValid == true, \"Betting event Id is invalid.\");\n        require((int256(_bettingEventMap[bettingEventId].bettingEventScenarios.length) > bettingEventScenario) && (bettingEventScenario >= 0), \"Event scenario invalid.\");\n        require(_bettingPlayerInGame[msg.sender] == false, \"Player already registered.\");\n        \n        uint256 bettingId = _MakeBet(msg.sender, false, bettingEventId, bettingAmount, bettingEventScenario);\n        _bettingEventIdToPairIdMap[bettingEventId].push(bettingId);\n        \n        return bettingId;\n    }\n    \n    /*\n    * @Param: bettingEventScenario -> claim value for which the bet is made, eg: price of ETH is 120USD, bettingEventScenario = 120USD.\n    * @Param: bettingAmount -> to ensure ether transacted while invoking contract is as expected.\n    * @Param: instantBetResultAggrAddress -> chainlink oracle address from which the truth is retrieved.\n    */\n    function MakeInstantBet(int256 bettingEventScenario, uint256 bettingAmount, address instantBetResultAggrAddress) public payable returns (uint256)\n    {\n        require(msg.value == bettingAmount, \"Value is not equal to betting amount.\");\n        require(_bettingPlayerInGame[msg.sender] == false, \"Player already registered.\");\n        \n        uint256 bettingId = _MakeBet(msg.sender, true, 0, bettingAmount, bettingEventScenario);\n        _bettingPairIdToPlayersPairMap[bettingId].externalOracle = AggregatorV3Interface(instantBetResultAggrAddress);\n        _instantBettingPairs += 1;\n        \n        return bettingId;\n    }\n    \n    function _MakeBet(address msgSender, bool isInstantBet, uint256 bettingEventId, uint256 bettingAmount, int256 bettingEventScenario) internal returns (uint256)\n    {\n        _bettingPlayerInGame[msgSender] = true;\n        _bettingPairIdCounter += 1;\n        _bettingPairIdToPlayersPairMap[_bettingPairIdCounter].isInstantBet = isInstantBet;\n        _bettingPairIdToPlayersPairMap[_bettingPairIdCounter].bettingPairId = _bettingPairIdCounter;\n        _bettingPairIdToPlayersPairMap[_bettingPairIdCounter].bettingEventId = bettingEventId;\n        _bettingPairIdToPlayersPairMap[_bettingPairIdCounter].bettingAmount = bettingAmount;\n        _bettingPairIdToPlayersPairMap[_bettingPairIdCounter].bettingPlayers[0] = payable(msgSender);\n        _bettingPairIdToPlayersPairMap[_bettingPairIdCounter].bettingPlayersChoices[0] = bettingEventScenario;\n        \n        return _bettingPairIdCounter;\n    }\n    \n    /*\n    * @Param: bettingPairId -> the pair id shared after a call to MakeBet by another pair or a free slot as seen from call to GetAllBets.\n    * @Param: bettingEventId -> event Id as obtained from call to GetAllBettingEvents.\n    * @Param: bettingEventScenario -> index of scenario in BettingEvent.bettingEventScenario, again obtained from GetAllBettingEvents.\n    * @Param: bettingAmount -> to ensure ether transacted while invoking contract is as expected.\n    */\n    function MakeCounterBet(uint256 bettingPairId, uint256 bettingEventId, int256 bettingEventScenario, uint256 bettingAmount) public payable\n    {\n        require(msg.value == bettingAmount, \"Value is not equal to betting amount.\");\n        require(_bettingPairIdToPlayersPairMap[bettingPairId].bettingAmount > 0, \"Betting pair Id is invalid.\");\n        require(_bettingPairIdToPlayersPairMap[bettingPairId].bettingAmount == bettingAmount, \"Betting amount paid is not equal to amount for which the bet was made.\");\n        require(_bettingPairIdToPlayersPairMap[bettingPairId].bettingEventId == bettingEventId, \"Betting event Id is invalid.\");\n        require((int256(_bettingEventMap[bettingEventId].bettingEventScenarios.length) > bettingEventScenario) && (bettingEventScenario >= 0), \"Event scenario invalid.\");\n        require(_bettingPlayerInGame[msg.sender] == false, \"Player already registered.\");\n        require(_bettingPairIdToPlayersPairMap[bettingPairId].bettingPlayersChoices[0] != bettingEventScenario, \"Bet already made for this scenario.\");\n        \n        _bettingPlayerInGame[msg.sender] = true;\n        _bettingPairIdToPlayersPairMap[_bettingPairIdCounter].bettingPlayers[1] = payable(msg.sender);\n        _bettingPairIdToPlayersPairMap[_bettingPairIdCounter].bettingPlayersChoices[1] = bettingEventScenario;\n    }\n    \n    /*\n    * @Param: bettingPairId -> the pair id shared after a call to MakeBet by another pair or a free slot as seen from call to GetAllBets.\n    * @Param: bettingEventScenario -> claim value for which the bet is made, eg: price of ETH is 120USD, bettingEventScenario = 120USD.\n    * @Param: bettingAmount -> to ensure ether transacted while invoking contract is as expected.\n    */\n    function MakeInstantCounterBet(uint256 bettingPairId, int256 bettingEventScenario, uint256 bettingAmount) public payable\n    {\n        require(msg.value == bettingAmount, \"Value is not equal to betting amount.\");\n        require(_bettingPairIdToPlayersPairMap[bettingPairId].bettingAmount > 0, \"Betting pair Id is invalid.\");\n        require(_bettingPairIdToPlayersPairMap[bettingPairId].bettingAmount == bettingAmount, \"Betting amount paid is not equal to amount for which the bet was made.\");\n        require(_bettingPlayerInGame[msg.sender] == false, \"Player already registered.\");\n        \n        /*Get current value of entity. Hardcoding for ETH-USD price logic here.*/\n        (/* uint80 roundID */, int256 curPrice, /* uint startedAt */, /* uint timeStamp */, /* uint80 answeredInRound */) \n            = _bettingPairIdToPlayersPairMap[bettingPairId].externalOracle.latestRoundData();\n        \n        int256 better1PriceDelta = AbsDelta(_bettingPairIdToPlayersPairMap[bettingPairId].bettingPlayersChoices[0], curPrice);\n        int256 better2PriceDelta = AbsDelta(bettingEventScenario, curPrice);\n        \n        if(better1PriceDelta < better2PriceDelta)\n        {\n            _bettingPairIdToPlayersPairMap[bettingPairId].bettingPlayers[0].transfer(2 * bettingAmount);\n        }\n        else if(better2PriceDelta < better1PriceDelta)\n        {\n            payable(msg.sender).transfer(2 * bettingAmount);\n        }\n        else if((better1PriceDelta == better2PriceDelta) && (better2PriceDelta == 0))\n        {\n            _bettingPairIdToPlayersPairMap[bettingPairId].bettingPlayers[0].transfer(bettingAmount);\n            payable(msg.sender).transfer(bettingAmount);\n        }\n        else\n        {\n            /*You all lose money, ha ha ha.*/\n        }\n        \n        /*Cleanup*/\n        _instantBettingPairs -= 1;\n        _bettingPlayerInGame[_bettingPairIdToPlayersPairMap[bettingPairId].bettingPlayers[0]] = false;\n        delete _bettingPairIdToPlayersPairMap[bettingPairId];\n    }\n    \n    function AbsDelta(int256 betterAmount, int256 truthAmount) internal pure returns (int256)\n    {\n        int256 betterPriceDelta = 0;\n        if(betterAmount >= truthAmount)\n        {\n            betterPriceDelta = betterAmount - truthAmount;\n        }\n        else\n        {\n            betterPriceDelta = truthAmount - betterAmount;\n        }\n        return betterPriceDelta;\n    }\n    \n    function GetAllBets() public view returns (BettingPair [] memory)\n    {\n        BettingPair[] memory bettingPairsArray = new BettingPair[](_bettingPairIdCounter);\n        \n        uint256 i = 0;\n        for(i = 1; i <= _bettingPairIdCounter; i+=1)\n        {\n            bettingPairsArray[i - 1] = _bettingPairIdToPlayersPairMap[i];\n        }\n        return bettingPairsArray;\n    }\n    \n    function GetAllInstantBets() public view returns (BettingPair [] memory)\n    {\n        BettingPair[] memory bettingPairsArray = new BettingPair[](_instantBettingPairs);\n        \n        uint256 i = 0;\n        uint256 j = 0;\n        for(i = 1; i <= _bettingPairIdCounter; i+=1)\n        {\n            if(_bettingPairIdToPlayersPairMap[i].isInstantBet == true)\n            {\n                bettingPairsArray[j] = _bettingPairIdToPlayersPairMap[i];\n                j += 1;\n            }\n        }\n        return bettingPairsArray;\n    }\n    \n    /* Ideally the information passed as arguments should come from chainlink*/\n    function EndBettingEvent(uint256 bettingEventId, int256 winBettingEventScenario) public\n    {\n        require(msg.sender == _owner, \"Only owner can end betting events.\");\n        require(_bettingEventMap[bettingEventId].isValid == true, \"Betting event Id is invalid.\");\n        require((int256(_bettingEventMap[bettingEventId].bettingEventScenarios.length) > winBettingEventScenario) && (winBettingEventScenario >= 0), \"Event scenario invalid.\");\n        require(_bettingEventIdToPairIdMap[bettingEventId].length > 0, \"No bets made for betting event id.\");\n        \n        uint32 i = 0;\n        for(i = 0; i < _bettingEventIdToPairIdMap[bettingEventId].length; i+=1)\n        {\n            BettingPair memory bPair = _bettingPairIdToPlayersPairMap[_bettingEventIdToPairIdMap[bettingEventId][i]];\n            if (bPair.bettingPlayersChoices[0] == winBettingEventScenario)\n            {\n                if(_bettingPlayerInGame[bPair.bettingPlayers[1]] == true) /* Another player made a counter bet*/\n                {\n                    bPair.bettingPlayers[0].transfer(2 * bPair.bettingAmount);\n                }\n                else /* Give the amount back if there was only one player who made the bet.*/\n                {\n                    bPair.bettingPlayers[0].transfer(bPair.bettingAmount);\n                }\n            }\n            else if(bPair.bettingPlayersChoices[1] == winBettingEventScenario)\n            {\n                if(_bettingPlayerInGame[bPair.bettingPlayers[1]] == true) /* Ensure that there is a second player.*/\n                {\n                    bPair.bettingPlayers[1].transfer(2 * bPair.bettingAmount);\n                }\n            }\n            else\n            {}\n            /*Mark players as having finished the current bet.*/\n            _bettingPlayerInGame[bPair.bettingPlayers[0]] = false;\n            _bettingPlayerInGame[bPair.bettingPlayers[1]] = false;\n            \n            delete _bettingPairIdToPlayersPairMap[_bettingEventIdToPairIdMap[bettingEventId][i]];\n        }\n        delete _bettingEventIdToPairIdMap[bettingEventId];\n        delete _bettingEventMap[bettingEventId];\n    }\n}",
  "sourcePath": "/Volumes/Transcend/chain/chainlink_tutorial/bet-v2/contracts/BettingWithoutChainLink.sol",
  "compiler": {
    "name": "solc",
    "version": "0.6.6+commit.6c089d02.Emscripten.clang"
  },
  "schemaVersion": "3.4.1",
  "updatedAt": "2021-06-05T00:46:03.839Z",
  "devdoc": {
    "methods": {}
  },
  "userdoc": {
    "methods": {}
  }
}