{
  "contractName": "PriceConsumerV3_LINK_USD",
  "abi": [
    {
      "inputs": [],
      "stateMutability": "nonpayable",
      "type": "constructor"
    },
    {
      "anonymous": false,
      "inputs": [
        {
          "indexed": false,
          "internalType": "address",
          "name": "player1",
          "type": "address"
        },
        {
          "indexed": false,
          "internalType": "address",
          "name": "player2",
          "type": "address"
        }
      ],
      "name": "BetStartsEvent",
      "type": "event"
    },
    {
      "anonymous": false,
      "inputs": [
        {
          "indexed": false,
          "internalType": "address",
          "name": "winner",
          "type": "address"
        },
        {
          "indexed": false,
          "internalType": "uint256",
          "name": "gains",
          "type": "uint256"
        }
      ],
      "name": "EndOfBetEvent",
      "type": "event"
    },
    {
      "anonymous": false,
      "inputs": [
        {
          "indexed": false,
          "internalType": "uint256",
          "name": "player1Deposit",
          "type": "uint256"
        },
        {
          "indexed": false,
          "internalType": "uint256",
          "name": "player2Deposit",
          "type": "uint256"
        }
      ],
      "name": "EndOfRoundEvent",
      "type": "event"
    },
    {
      "inputs": [],
      "name": "currentPriceFromChainLink",
      "outputs": [
        {
          "internalType": "int256",
          "name": "",
          "type": "int256"
        }
      ],
      "stateMutability": "view",
      "type": "function"
    },
    {
      "inputs": [],
      "name": "gains",
      "outputs": [
        {
          "internalType": "uint256",
          "name": "",
          "type": "uint256"
        }
      ],
      "stateMutability": "view",
      "type": "function"
    },
    {
      "inputs": [],
      "name": "gameFinished",
      "outputs": [
        {
          "internalType": "bool",
          "name": "",
          "type": "bool"
        }
      ],
      "stateMutability": "view",
      "type": "function"
    },
    {
      "inputs": [],
      "name": "player1",
      "outputs": [
        {
          "internalType": "address",
          "name": "",
          "type": "address"
        }
      ],
      "stateMutability": "view",
      "type": "function"
    },
    {
      "inputs": [],
      "name": "player1Deposit",
      "outputs": [
        {
          "internalType": "uint256",
          "name": "",
          "type": "uint256"
        }
      ],
      "stateMutability": "view",
      "type": "function"
    },
    {
      "inputs": [],
      "name": "player1Played",
      "outputs": [
        {
          "internalType": "bool",
          "name": "",
          "type": "bool"
        }
      ],
      "stateMutability": "view",
      "type": "function"
    },
    {
      "inputs": [],
      "name": "player1PricePrediction",
      "outputs": [
        {
          "internalType": "int256",
          "name": "",
          "type": "int256"
        }
      ],
      "stateMutability": "view",
      "type": "function"
    },
    {
      "inputs": [],
      "name": "player2",
      "outputs": [
        {
          "internalType": "address",
          "name": "",
          "type": "address"
        }
      ],
      "stateMutability": "view",
      "type": "function"
    },
    {
      "inputs": [],
      "name": "player2Deposit",
      "outputs": [
        {
          "internalType": "uint256",
          "name": "",
          "type": "uint256"
        }
      ],
      "stateMutability": "view",
      "type": "function"
    },
    {
      "inputs": [],
      "name": "player2Played",
      "outputs": [
        {
          "internalType": "bool",
          "name": "",
          "type": "bool"
        }
      ],
      "stateMutability": "view",
      "type": "function"
    },
    {
      "inputs": [],
      "name": "player2PricePrediction",
      "outputs": [
        {
          "internalType": "int256",
          "name": "",
          "type": "int256"
        }
      ],
      "stateMutability": "view",
      "type": "function"
    },
    {
      "inputs": [],
      "name": "theWinner",
      "outputs": [
        {
          "internalType": "address",
          "name": "",
          "type": "address"
        }
      ],
      "stateMutability": "view",
      "type": "function"
    },
    {
      "inputs": [],
      "name": "getLatestPrice",
      "outputs": [
        {
          "internalType": "int256",
          "name": "",
          "type": "int256"
        }
      ],
      "stateMutability": "view",
      "type": "function"
    },
    {
      "inputs": [],
      "name": "registerAsAnOpponent",
      "outputs": [],
      "stateMutability": "nonpayable",
      "type": "function"
    },
    {
      "inputs": [
        {
          "internalType": "address",
          "name": "_priceFeed",
          "type": "address"
        },
        {
          "internalType": "int256",
          "name": "pricePrediction",
          "type": "int256"
        }
      ],
      "name": "betOnPrice",
      "outputs": [],
      "stateMutability": "payable",
      "type": "function"
    },
    {
      "inputs": [],
      "name": "withdraw",
      "outputs": [],
      "stateMutability": "nonpayable",
      "type": "function"
    }
  ],
  "bytecode": "0x608060405234801561001057600080fd5b5033600160006101000a81548173ffffffffffffffffffffffffffffffffffffffff021916908373ffffffffffffffffffffffffffffffffffffffff160217905550610c75806100616000396000f3fe6080604052600436106100f35760003560e01c8063ac653b291161008a578063cfc9d19811610059578063cfc9d19814610353578063d30895e414610382578063dcc84fd7146103d9578063f0f3249714610404576100f3565b8063ac653b2914610280578063acc99c45146102ab578063c804eacc146102f9578063c93f0c1714610324576100f3565b80638e15f473116100c65780638e15f473146101bc5780639d24e482146101e7578063a5b9d8461461023e578063a8b42f1f14610269576100f3565b80632533d882146100f85780633ccfd60b1461012357806359a5f12d1461013a5780636509d72314610191575b600080fd5b34801561010457600080fd5b5061010d610433565b6040518082815260200191505060405180910390f35b34801561012f57600080fd5b50610138610439565b005b34801561014657600080fd5b5061014f610514565b604051808273ffffffffffffffffffffffffffffffffffffffff1673ffffffffffffffffffffffffffffffffffffffff16815260200191505060405180910390f35b34801561019d57600080fd5b506101a661053a565b6040518082815260200191505060405180910390f35b3480156101c857600080fd5b506101d1610540565b6040518082815260200191505060405180910390f35b3480156101f357600080fd5b506101fc61061a565b604051808273ffffffffffffffffffffffffffffffffffffffff1673ffffffffffffffffffffffffffffffffffffffff16815260200191505060405180910390f35b34801561024a57600080fd5b50610253610640565b6040518082815260200191505060405180910390f35b34801561027557600080fd5b5061027e610646565b005b34801561028c57600080fd5b50610295610819565b6040518082815260200191505060405180910390f35b6102f7600480360360408110156102c157600080fd5b81019080803573ffffffffffffffffffffffffffffffffffffffff1690602001909291908035906020019092919050505061081f565b005b34801561030557600080fd5b5061030e610adf565b6040518082815260200191505060405180910390f35b34801561033057600080fd5b50610339610ae5565b604051808215151515815260200191505060405180910390f35b34801561035f57600080fd5b50610368610af8565b604051808215151515815260200191505060405180910390f35b34801561038e57600080fd5b50610397610b0b565b604051808273ffffffffffffffffffffffffffffffffffffffff1673ffffffffffffffffffffffffffffffffffffffff16815260200191505060405180910390f35b3480156103e557600080fd5b506103ee610b31565b6040518082815260200191505060405180910390f35b34801561041057600080fd5b50610419610b37565b604051808215151515815260200191505060405180910390f35b60095481565b600760009054906101000a900460ff1680156104a257503373ffffffffffffffffffffffffffffffffffffffff16600760019054906101000a900473ffffffffffffffffffffffffffffffffffffffff1673ffffffffffffffffffffffffffffffffffffffff16145b6104ab57600080fd5b600060085490506000600881905550600060038190555060006004819055503373ffffffffffffffffffffffffffffffffffffffff166108fc829081150290604051600060405180830381858888f19350505050158015610510573d6000803e3d6000fd5b5050565b600260009054906101000a900473ffffffffffffffffffffffffffffffffffffffff1681565b60065481565b6000806000809054906101000a900473ffffffffffffffffffffffffffffffffffffffff1673ffffffffffffffffffffffffffffffffffffffff1663feaf968c6040518163ffffffff1660e01b815260040160a06040518083038186803b1580156105aa57600080fd5b505afa1580156105be573d6000803e3d6000fd5b505050506040513d60a08110156105d457600080fd5b8101908080519060200190929190805190602001909291908051906020019092919080519060200190929190805190602001909291905050505050509150508091505090565b600760019054906101000a900473ffffffffffffffffffffffffffffffffffffffff1681565b60045481565b600073ffffffffffffffffffffffffffffffffffffffff16600260009054906101000a900473ffffffffffffffffffffffffffffffffffffffff1673ffffffffffffffffffffffffffffffffffffffff161480156106f25750600160009054906101000a900473ffffffffffffffffffffffffffffffffffffffff1673ffffffffffffffffffffffffffffffffffffffff163373ffffffffffffffffffffffffffffffffffffffff1614155b6106fb57600080fd5b33600260006101000a81548173ffffffffffffffffffffffffffffffffffffffff021916908373ffffffffffffffffffffffffffffffffffffffff1602179055507f400a3866f8824f7e4bc6c081bdcd7ea819272bbb09aaf6132d95390d03f4e0ed600160009054906101000a900473ffffffffffffffffffffffffffffffffffffffff16600260009054906101000a900473ffffffffffffffffffffffffffffffffffffffff16604051808373ffffffffffffffffffffffffffffffffffffffff1673ffffffffffffffffffffffffffffffffffffffff1681526020018273ffffffffffffffffffffffffffffffffffffffff1673ffffffffffffffffffffffffffffffffffffffff1681526020019250505060405180910390a1565b60085481565b600760009054906101000a900460ff161580156108e15750600160009054906101000a900473ffffffffffffffffffffffffffffffffffffffff1673ffffffffffffffffffffffffffffffffffffffff163373ffffffffffffffffffffffffffffffffffffffff1614806108e05750600260009054906101000a900473ffffffffffffffffffffffffffffffffffffffff1673ffffffffffffffffffffffffffffffffffffffff163373ffffffffffffffffffffffffffffffffffffffff16145b5b6108ea57600080fd5b816000806101000a81548173ffffffffffffffffffffffffffffffffffffffff021916908373ffffffffffffffffffffffffffffffffffffffff160217905550600160009054906101000a900473ffffffffffffffffffffffffffffffffffffffff1673ffffffffffffffffffffffffffffffffffffffff163373ffffffffffffffffffffffffffffffffffffffff1614156109d25760001515600260149054906101000a900460ff161515146109a057600080fd5b6001600260146101000a81548160ff021916908315150217905550346003540160038190555080600581905550610a20565b60001515600260159054906101000a900460ff161515146109f257600080fd5b6001600260156101000a81548160ff0219169083151502179055503460045401600481905550806006819055505b600260149054906101000a900460ff168015610a485750600260159054906101000a900460ff165b15610adb57610a55610540565b600981905550610a6a60065460095403610b4a565b610a7960055460095403610b4a565b13610aae57610aa9600160009054906101000a900473ffffffffffffffffffffffffffffffffffffffff16610b66565b610ada565b610ad9600260009054906101000a900473ffffffffffffffffffffffffffffffffffffffff16610b66565b5b5b5050565b60035481565b600260159054906101000a900460ff1681565b600260149054906101000a900460ff1681565b600160009054906101000a900473ffffffffffffffffffffffffffffffffffffffff1681565b60055481565b600760009054906101000a900460ff1681565b600080821215610b5d5781600003610b5f565b815b9050919050565b6001600760006101000a81548160ff02191690831515021790555080600760016101000a81548173ffffffffffffffffffffffffffffffffffffffff021916908373ffffffffffffffffffffffffffffffffffffffff160217905550600454600354016008819055507fb92c2b787ad77de767427bc06dcf1d73bff20efa895eb4f5b114faa162d48db881600854604051808373ffffffffffffffffffffffffffffffffffffffff1673ffffffffffffffffffffffffffffffffffffffff1681526020018281526020019250505060405180910390a15056fea2646970667358221220460c9b7b1b0649721086a4153b7d95205ffa52c2f202751b65bc4a6ffd721d9c64736f6c63430006060033",
  "immutableReferences": {},
  "source": "pragma solidity ^0.6.6;\n\nimport \"@chainlink/contracts/src/v0.6/interfaces/AggregatorV3Interface.sol\";\n\ncontract PriceConsumerV3_LINK_USD {\n\n    AggregatorV3Interface internal priceFeed;\n\n    /**\n    * Our Bettor\n    */\n\taddress public player1;\n\taddress public player2;\n\n\tbool public player1Played;\n\tbool public player2Played;\n\n\tuint public player1Deposit;\n\tuint public player2Deposit;\n\n    int public player1PricePrediction;\n    int public player2PricePrediction;\n\n\tbool public gameFinished;\n    address public theWinner;\n    uint public gains;\n\n    int public currentPriceFromChainLink;\n    \n    \n    /**\n    * The logs that will be emitted in every step of the contract's life cycle\n    */\n\tevent BetStartsEvent(address player1, address player2);\n\tevent EndOfRoundEvent(uint player1Deposit, uint player2Deposit);\n\tevent EndOfBetEvent(address winner, uint gains);\n\n    /**\n     * Network: Kovan\n     * Aggregator: LINK/USD\n     * Address: 0x396c5E36DD0a0F5a5D33dae44368D4193f69a1F0\n     https://docs.chain.link/docs/ethereum-addresses/\n     */\n    constructor() public {\n        player1 = msg.sender;\n    }\n\n    /**\n     * Returns the latest price\n     */\n    function getLatestPrice() public view returns (int) {\n        (\n            /* uint80 roundID */,\n            int price,\n            /* uint startedAt */,\n            /* uint timeStamp */,\n            /* uint80 answeredInRound */\n        ) = priceFeed.latestRoundData();\n        return price;\n    }\n\n    /**\n    * A second player can register as an opponent\n    */\n\tfunction registerAsAnOpponent() public {\n        require(player2 == address(0) && msg.sender != player1);\n        player2 = msg.sender;\n        emit BetStartsEvent(player1, player2);\n    }\n\n    /**\n    * Every round a player can put a sum of ether, if one of the player put in twice or\n    * more the money (in total) than the other did, the first wins\n    */\n    function betOnPrice(address _priceFeed, int pricePrediction) public payable {\n    \trequire(!gameFinished && (msg.sender == player1 || msg.sender == player2));\n        priceFeed = AggregatorV3Interface(_priceFeed);\n\n    \tif(msg.sender == player1) {\n    \t\trequire(player1Played == false);\n    \t\tplayer1Played = true;\n    \t\tplayer1Deposit = player1Deposit + msg.value;\n            player1PricePrediction = pricePrediction; \n    \t} else {\n    \t\trequire(player2Played == false);\n    \t\tplayer2Played = true;\n    \t\tplayer2Deposit = player2Deposit + msg.value;\n            player2PricePrediction = pricePrediction; \n    \t}\n    \tif(player1Played && player2Played) {\n            currentPriceFromChainLink = getLatestPrice();\n            \n    \t\tif(abs(currentPriceFromChainLink - player1PricePrediction) <=\n             abs(currentPriceFromChainLink - player2PricePrediction)) {\n    \t\t\tendOfGame(player1);\n    \t\t} else {\n    \t\t\tendOfGame(player2);\n    \t\t}\n    \t}\n    }\n\n    function abs(int x) private pure returns (int) {\n        return x >= 0 ? x : -x;\n    }\n\n    function endOfRound() internal {\n    \tplayer1Played = false;\n    \tplayer2Played = false;\n\n    \temit EndOfRoundEvent(player1Deposit, player2Deposit);\n    }\n\n    function endOfGame(address winner) internal {\n        gameFinished = true;\n        theWinner = winner;\n\n        gains = player1Deposit + player2Deposit;\n        emit EndOfBetEvent(winner, gains);\n    }\n\n    /**\n    * The withdraw function, following the withdraw pattern shown and explained here:\n    * http://solidity.readthedocs.io/en/develop/common-patterns.html#withdrawal-from-contracts\n    */\n    function withdraw() public {\n        require(gameFinished && theWinner == msg.sender);\n\n        uint amount = gains;\n\n        // Clean out the current state\n        gains = 0;\n        player1Deposit = 0;\n        player2Deposit = 0;\n         \n        msg.sender.transfer(amount);\n    }\n}",
  "sourcePath": "/Volumes/Transcend/chain/chainlink_tutorial/bet-v1/contracts/BetContract.sol",
  "compiler": {
    "name": "solc",
    "version": "0.6.6+commit.6c089d02.Emscripten.clang"
  },
  "schemaVersion": "3.4.1",
  "updatedAt": "2021-05-27T00:14:39.426Z",
  "devdoc": {
    "methods": {}
  },
  "userdoc": {
    "methods": {
      "betOnPrice(address,int256)": {
        "notice": "Every round a player can put a sum of ether, if one of the player put in twice or more the money (in total) than the other did, the first wins"
      },
      "constructor": "Network: Kovan Aggregator: LINK/USD Address: 0x396c5E36DD0a0F5a5D33dae44368D4193f69a1F0 https://docs.chain.link/docs/ethereum-addresses/",
      "getLatestPrice()": {
        "notice": "Returns the latest price"
      },
      "registerAsAnOpponent()": {
        "notice": "A second player can register as an opponent"
      },
      "withdraw()": {
        "notice": "The withdraw function, following the withdraw pattern shown and explained here: http://solidity.readthedocs.io/en/develop/common-patterns.html#withdrawal-from-contracts"
      }
    }
  }
}